S00D00004E6F6465322E737265635F
S113000071C000008EC000008CC000008AC00000D7
S113001088C0000086C0000084C0000082C00000C8
S113002080C000007EC000007CC000007AC00000D8
S113003078C0000076C0000074C0000072C00000E8
S113004070C000006EC000006CC000006AC00000F8
S113005068C0000066C0000064C0000062C0000008
S113006060C000005EC000005CC000005AC0000018
S113007058C0000056C0000054C0000052C0000028
S113008050C000004EC000004CC000004AC0000038
S113009048C0000046C0000044C0000042C0000048
S11300A040C000003EC000003CC000003AC0000058
S11300B038C0000036C0000034C0000032C0000068
S11300C030C000002EC000002CC000002AC0000078
S11300D028C0000026C0000024C0000022C0000088
S11300E020C0000011241FBECFEFD1E2DEBFCDBF80
S11300F000E00CBF12E0A0E0B2E0EAEFFAE000E0BA
S11301000BBF02C007900D92AC38B107D9F722E0BB
S1130110ACE8B2E001C01D92A839B207E1F765D09E
S1130120EAC46ECF24D060E88FE026D063E08BE28F
S113013023D060E08CE220D060E08DE21DD060E04E
S11301408CE01AD060E08DE017D060E680E614D031
S113015060E680E711D040E060EE8FE01CC00895B7
S11301602F9880EC6BD02F9A80E090E008955DD0BA
S1130170F7DF80E090E00895CF93DF93D82FC62F68
S11301802F9882E05BD08D2F59D08C2F57D02F9A87
S1130190DF91CF9108951F93CF93DF93182FD62F1C
S11301A0C42F2F9885E04AD0812F48D08D2F46D078
S11301B08C2F44D085B18F6785B9DF91CF911F9182
S11301C00895E7E0F1E080818E7F808380910601CD
S11301D081701F928F9381E892E09F938F93C5D192
S11301E00F900F900F900F900895C1DF9BDF05D003
S11301F087E690E038D0E5DFFECF81EE94E090937F
S1130200870080938600269A8EE390E090938B007B
S113021080938A00E0E8F0E0808182628083E1E8F4
S1130220F0E080818C618083089584B1876884B90B
S11302302398289A8CB581658CBD08958EBD0DB424
S113024007FEFDCF0895E0ECF0E0908195FFFDCF2F
S11302508093C6000895E0ECF0E080818823ECF7F9
S11302608091C60008959093C5008093C40088E1EE
S11302708093C1006BE271E083E291E02CD1909312
S11302808D0280938C020895CF93DF938230910581
S113029010F482E090E0E0919002F091910220E06D
S11302A030E0A0E0B0E0309739F140815181481747
S11302B05907B8F04817590771F482819381109750
S11302C029F013969C938E9312972CC090939102CD
S11302D08093900227C02115310531F0421753074E
S11302E018F0A901DB0101C0EF019A01BD01DF0192
S11302F00280F381E02DD7CF21153105F9F0281BB9
S1130300390B2430310580F48A819B816115710594
S113031021F0FB019383828304C090939102809324
S11303209002FE01329644C0FE01E20FF31F819356
S1130330919322503109398328833AC020918E0247
S113034030918F02232B41F4209102023091030259
S113035030938F0220938E0220910002309101028B
S11303602115310541F42DB73EB740910402509157
S11303700502241B350BE0918E02F0918F02E217E7
S1130380F307A0F42E1B3F0B2817390778F0AC01B4
S11303904E5F5F4F2417350748F04E0F5F1F509391
S11303A08F0240938E028193919302C0E0E0F0E0CB
S11303B0CF01DF91CF910895CF93DF93009709F494
S11303C087C0FC01329713821282C0919002D091AF
S11303D09102209781F420813181280F391F809167
S11303E08E0290918F028217930779F5F0938F0212
S11303F0E0938E026DC0DE0120E030E0AE17BF074F
S113040050F412964D915C9113979D01411551053D
S113041009F1DA01F3CFB383A28340815181840FC0
S1130420951F8A179B0771F48D919C911197840FE6
S1130430951F02969183808312968D919C911397B8
S1130440938382832115310529F4F0939102E0937B
S113045090023EC0D9011396FC93EE9312974D91EE
S11304605D91A40FB51FEA17FB0779F48081918190
S1130470840F951F0296D90111969C938E938281C5
S1130480938113969C938E931297E0E0F0E08A8117
S11304909B81009719F0FE01EC01F9CFCE01029681
S11304A028813981820F931F20918E0230918F020F
S11304B02817390769F4309729F4109291021092A1
S11304C0900202C013821282D0938F02C0938E02D4
S11304D0DF91CF9108950F931F93CF93DF93EC0196
S11304E08B01009731F46115710519F480E090E0F7
S11304F037C06EE070E081E090E036D2FC010097F6
S1130500A9F380E883830115110571F0138702872D
S113051081E883838091920290919302892B21F444
S1130520F0939302E09392022097C9F0D187C08799
S11305308381826083838091940290919502892BB8
S113054071F4F0939502E093940280919602909155
S11305509702892B21F4F0939702E0939602CF013E
S1130560DF91CF911F910F910895CF93DF93CDB772
S1130570DEB7FE01369661917191AF0180919402CC
S11305809091950203D0DF91CF9108952F923F92DD
S11305904F925F926F927F928F929F92AF92BF928F
S11305A0CF92DF92EF92FF920F931F93CF93DF933B
S11305B0CDB7DEB72C970FB6F894DEBF0FBECDBF14
S11305C07C016B018A01FC0117821682838181FF01
S11305D0B0C1CE0101964C01F7019381F60193FD60
S11305E0859193FF81916F01882309F49EC185321F
S11305F039F493FD859193FF81916F01853221F444
S1130600B70190E0E8D1E8CF512C312C20E0203222
S1130610A0F48B3269F030F4803259F0833269F4FB
S113062020612CC08D3239F0803339F4216026C02A
S11306302260246023C0286021C027FD27C030ED3C
S1130640380F3A3078F426FF06C0FAE05F9E300D8A
S11306501124532E13C08AE0389E300D1124332EFA
S113066020620CC08E3221F426FD5FC1206406C0D6
S11306708C3611F4206802C0883641F4F60193FDEB
S1130680859193FF81916F018111C1CF982F9F7D37
S11306909554933028F40C5F1F4FFFE3F9830DC08A
S11306A0833631F0833771F0833509F057C021C0A8
S11306B0F801808189830E5F1F4F44244394512C99
S11306C0540114C03801F2E06F0E711CF801A080CF
S11306D0B18026FF03C0652D70E002C06FEF7FEF8D
S11306E0C5012C876DD12C0183012C852F77222EF7
S11306F016C03801F2E06F0E711CF801A080B180C1
S113070026FF03C0652D70E002C06FEF7FEFC501C7
S11307102C8744D12C012C852068222E830123FCB4
S113072019C0832D90E048165906A0F4B70180E261
S113073090E051D13A94F5CFF50127FC859127FE3D
S113074081915F01B70190E046D131103A94F1E014
S11307504F1A51084114510479F7DEC0843611F060
S1130760893631F5F80127FF07C0608171818281E4
S113077093810C5F1F4F08C060817181882777FDCA
S11307808095982F0E5F1F4F2F76B22E97FF09C0CA
S113079090958095709561957F4F8F4F9F4F2068FE
S11307A0B22E2AE030E0A40148D1A82EA81843C0F4
S11307B0853729F42F7EB22E2AE030E025C0F22FAF
S11307C0F97FBF2E8F36C1F018F4883579F0ADC0AB
S11307D0803719F0883721F0A8C02F2F2061B22E5E
S11307E0B4FE0DC08B2D8460B82E09C024FF0AC04E
S11307F09F2F9660B92E06C028E030E005C020E1A6
S113080030E002C020E132E0F801B7FE07C06081A9
S11308107181828193810C5F1F4F06C06081718159
S113082080E090E00E5F1F4FA40107D1A82EA81806
S1130830FB2DFF77BF2EB6FE0BC02B2D2E7FA514EC
S113084050F4B4FE0AC0B2FC08C02B2D2E7E05C0A5
S11308507A2C2B2D03C07A2C01C0752C24FF0DC0DB
S1130860FE01EA0DF11D8081803311F4297E09C057
S113087022FF06C07394739404C0822F867809F013
S1130880739423FD12C020FF06C05A2C731418F46D
S1130890530C5718732C731460F4B70180E290E082
S11308A02C8799D073942C85F6CF731410F43718D1
S11308B001C0312C24FF11C0B70180E390E02C87E4
S11308C08AD02C8522FF16C021FF03C088E590E062
S11308D002C088E790E0B7010CC0822F867851F0FF
S11308E021FD02C080E201C08BE227FD8DE2B70149
S11308F090E071D0A51430F4B70180E390E06BD0A0
S11309005A94F8CFAA94F401EA0DF11D8081B7013D
S113091090E061D0A110F6CF332009F45DCEB70189
S113092080E290E058D03A94F7CFF701868197811E
S113093002C08FEF9FEF2C960FB6F894DEBF0FBE68
S1130940CDBFDF91CF911F910F91FF90EF90DF907A
S1130950CF90BF90AF909F908F907F906F905F905B
S11309604F903F902F9008950F931F93CF93DF9351
S1130970869F8001879F100D969F100D1124C8013A
S113098083DCEC01009721F0A80160E070E011D055
S1130990CE01DF91CF911F910F910895FC01059035
S11309A0615070400110D8F7809590958E0F9F1F6D
S11309B00895DC0101C06D9341505040E0F7089563
S11309C0FC016150704001900110D8F7809590951A
S11309D08E0F9F1F08950F931F93CF93DF93182FAC
S11309E0092FEB018B8181FD03C08FEF9FEF20C0A6
S11309F082FF10C04E815F812C813D8142175307D5
S1130A007CF4E881F9819F012F5F3F4F398328836C
S1130A10108306C0E885F985812F1995892B29F75C
S1130A202E813F812F5F3F4F3F832E83812F902F55
S1130A30DF91CF911F910F910895FA01AA272830D1
S1130A4051F1203181F1E8946F936E7F6E5F7F4F97
S1130A508F4F9F4FAF4FB1E03ED0B4E03CD0670F13
S1130A60781F891F9A1FA11D680F791F8A1F911D66
S1130A70A11D6A0F711D811D911DA11D20D009F4B6
S1130A8068943F912AE0269F11243019305D3193F8
S1130A90DEF6CF010895462F4770405D4193B3E0E1
S1130AA00FD0C9F7F6CF462F4F70405D4A3318F088
S1130AB0495D31FD4052419302D0A9F7EACFB4E039
S1130AC0A6959795879577956795BA95C9F70097F1
S1130AD06105710508959B01AC010A2E0694579592
S1130AE0479537952795BA95C9F7620F731F841FE9
S10D0AF0951FA01D0895F894FFCF90
S1130AFA0000980220005374617475733A203078A8
S1130B0A253032782C204572726F7220666C6167C8
S1130B1A3A307825303278200A00666C616767209B
S1130B2A31206F67203200444154415B25645D3AA9
S1130B3A202564200A002564004C656E6774683AAF
S1130B4A202564200A004944207265636569766534
S1130B5A643A2025303278200A0A003100494420B8
S1130B6A72656365697665643A2025303278200AAD
S10F0B7A004144313A202564200A0000A8
S9030000FC
