S00D00004E6F6465322E737265635F
S1130000C2C00000E0C00000DEC00000DCC0000090
S1130010DAC00000D8C00000D6C00000D4C0000080
S1130020D2C00000D0C00000CEC00000CCC0000090
S1130030CAC00000C8C00000C6C00000C4C00000A0
S1130040C2C00000C0C00000BEC00000BCC00000B0
S1130050BAC00000B8C00000B6C00000B4C00000C0
S1130060B2C00000B0C00000AEC00000ACC00000D0
S1130070AAC00000A8C00000A6C00000A4C00000E0
S1130080A2C00000A0C000009EC000009CC00000F0
S11300909AC0000098C0000096C0000051C3000040
S11300A092C0000090C000008EC000008CC0000010
S11300B08AC0000088C0000086C0000084C0000020
S11300C082C0000080C000007EC000007CC0000030
S11300D07AC0000078C0000076C0000074C0000040
S11300E072C00000BB030D040D040D040D040D04C7
S11300F00D040D04BB030D040D040D040D040D04C7
S11301000D040D04BD030D040D040D040D040D04B4
S11301100D040D040D040D040D040D040D040D0453
S11301200D040D04BD030D040D040D040D040D0494
S11301300D040D040D040D040D040D040D040D0433
S11301400D040D0409040D040D040D040D040D0427
S11301500D040D04E6030D040D040D040D040D043B
S11301600D040D040D040D040D040D040D040D0403
S11301700D040D04DA030D040D040D040D040D0427
S11301800D040D04F80311241FBECFEFD1E2DEBF2E
S1130190CDBF00E00CBF12E0A0E0B2E0EEECF5E170
S11301A000E00BBF02C007900D92AC3DB107D9F738
S11301B022E0ACEDB2E001C01D92AF3EB207E1F720
S11301C01DD20C94E50A1CCF80E480937C0088E067
S11301D080937B0080E880937A000895ECE7F0E058
S11301E0808182608083EAE7F0E08081806480839C
S11301F0808180917800909179000895CF93DF9366
S1130200BDD060E88FE0CED08EE0C1D01F928F9336
S1130210C7E0D2E0DF93CF9312D760E08BE2C2D085
S113022060E08CE2BFD060E08DE2BCD060E08CE0A6
S1130230B9D060E08DE0B6D060E680E6B3D060E689
S113024080E7B0D060E08FE0ADD08EE0A0D01F9208
S11302508F93DF93CF93F3D68DB79EB708960FB6DF
S1130260F8949EBF0FBE8DBFDF91CF910895CF92BA
S1130270DF92EF92FF920F931F93CF93DF93CDB74B
S1130280DEB72B970FB6F894DEBF0FBECDBFE98261
S1130290FA820B831C832D833E834F83588769879F
S11302A07A878B876E2D81E57DD06E2D81E57AD09E
S11302B0602F85E577D0C02ED12C1C141D048CF43E
S11302C07E0184E0E80EF11C00E010E0F70161918A
S11302D07F0186E5800F66D00F5F1F4F0C151D054B
S11302E0ACF384E86ED02B960FB6F894DEBF0FBE45
S11302F0CDBFDF91CF911F910F91FF90EF90DF90D1
S1130300CF900895EF92FF920F931F93CF93DF93B3
S11303107C0181E63CD090E0F7019183808385E6FF
S113032036D0F7018283893040F088E082838701E8
S11303300D5F1F4FC0E0D0E003C08111F8CF0DC0A6
S11303408C2F8A5924D0F80181938F012196F701CB
S1130350228130E0C217D3079CF360E08CE222D004
S1130360DF91CF911F910F91FF90EF9008952F98F7
S113037080ECADD12F9A80E090E008959FD1F7DF13
S113038085E38A95F1F7000080E090E00895CF932B
S1130390C82F2F9883E09BD18C2F99D19DD12F9A70
S11303A0CF910895CF93DF93D82FC62F2F9882E053
S11303B08ED18D2F8CD18C2F8AD12F9ADF91CF9112
S11303C008952F9884D12F9A0895E1E0F1E0808177
S11303D08A63808310920701E2E0F1E08081897FE3
S11303E080838AE68A95F1F700C0808180648083E7
S11303F077D178940895CF93DF9300D0CDB7DEB74B
S1130400E2E0F1E020812061208399232CF4208113
S113041022602083382F31951816190634F4E2E04F
S1130420F1E090819D7F9083382F80E589831A8243
S11304303B8363E0CE01019661D15CD18111FDCF94
S11304400F900F900F90DF91CF910895EF92FF924C
S11304500F931F93CF93DF937C01CAE0D0E000E0B9
S113046010E0BCDE080F191F21972097D1F704363E
S11304701105A4F521E0E21AF108E114F10451F4A4
S113048087E892E09F938F93DAD50F900F9080E0E6
S113049090E026C08FEF9BE722E9815090402040F6
S11304A0E1F700C0000007ED12E098DEEC01DF93F5
S11304B0CF931F930F93C3D50F900F900F900F906E
S11304C02A979CF32FEF83ED90E3215080409040D6
S11304D0E1F700C000008E2D9F2D02C08E2D9F2DB0
S11304E0DF91CF911F910F91FF90EF9008952F927C
S11304F03F924F925F926F927F928F929F92AF92B0
S1130500BF92CF92DF92EF92FF920F931F93CF93FC
S1130510DF93CDB7DEB72B970FB6F894DEBF0FBECF
S1130520CDBF00E010E06894662467F8712C0F2EAC
S1130530F5EC8F2EF2E09F2EF02D0F2EF6E45F2EB9
S1130540F02D212C6894332433F8412C8BE090E077
S113055005D46C01D7DEF6018581813011F4AAD06F
S113056001C0AAD0F60183819301281B3109C90176
S113057042DFF6018085819567D0F601E1848085AC
S11305801F928F939F928F925AD50F900F900F9036
S11305900F90012B11F4AE2CB12CA114B104A9F0CD
S11305A0C50154DF5C01E52C59822A82F22C032D0B
S11305B01C812D813E814F81588569857A8557DE5E
S11305C0C60164D401E0142DC1CF2B960FB6F89464
S11305D0DEBF0FBECDBFDF91CF911F910F91FF9072
S11305E0EF90DF90CF90BF90AF909F908F907F90CF
S11305F06F905F904F903F902F90089587E690E022
S113060032D1BCDEFBDD08D0DFDDDFDE50D07894F4
S11306106EDF80E090E0089581EE94E0909387008F
S113062080938600269A8EE390E090938B008093CB
S11306308A00E0E8F0E0808182628083E1E8F0E013
S113064080818C6180830895CF93682F70E080E06F
S113065090E015D220E030E04FE753E47AD120E077
S113066030E040E752E497D220E030E044E352E443
S11306700CD1F4D2D6D1C62F1F926F9387ED92E09E
S11306809F938F93DCD42C2F30E0A1EEB4E057D3AA
S113069028EE33E040E050E02AD330938B002093DF
S11306A08A000F900F900F900F90CF910895279A82
S11306B02F9A08952F9808952F9A089584B18768E2
S11306C084B92398289A8CB581658CBD08958EBD14
S11306D00DB407FEFDCF089580E0F9DF8EB50895CF
S11306E08CE08093B8008FEF8093BB0084E080930C
S11306F0BC0008958091BC0081700895ECEBF0E09B
S1130700208120FDFDCF6093DE02FC012081209337
S1130710DF0220FD0CC0623050F0DC011196E0EEE7
S1130720F2E081E09D9191938F5F8613FBCF10924D
S1130730DD0288EF8093060285EA8093BC00089569
S11307401F920F920FB60F9211240BB60F922F9394
S11307503F938F939F93AF93BF93EF93FF938091B6
S1130760B90090E0FC013897E135F10508F055C077
S1130770EE58FF4FDEC21092DC02E091DC02809161
S1130780DE02E81770F481E08E0F8093DC02F0E063
S1130790E152FD4F80818093BB0085E88093BC00CB
S11307A043C08091DD0281608093DD0284E98093FF
S11307B0BC003AC0E091DC0281E08E0F8093DC0241
S11307C08091BB00F0E0E152FD4F80832091DC0278
S11307D030E08091DE0290E001972817390724F475
S11307E085EC8093BC0020C085E88093BC001CC0CD
S11307F08091BB00E091DC02F0E0E152FD4F808388
S11308008091DD0281608093DD0284E98093BC00E5
S11308100BC085EA8093BC0007C08091B900809327
S1130820060284E08093BC00FF91EF91BF91AF91E9
S11308309F918F913F912F910F900BBE0F900FBE00
S11308400F901F901895E0ECF0E0908195FFFDCF9C
S11308508093C6000895E0ECF0E080818823ECF7F3
S11308608091C60008959093C5008093C40088E1E8
S11308708093C1006BE274E083E294E096D390939A
S1130880E4028093E30208955058BB27AA270ED0B0
S113089048C139D130F03ED120F031F49F3F11F4FA
S11308A01EF42EC10EF4E095E7FB24C1E92F4AD1D2
S11308B080F3BA17620773078407950718F071F479
S11308C09EF562C10EF4E0950B2EBA2FA02D0B01FC
S11308D0B90190010C01CA01A0011124FF27591B81
S11308E099F0593F50F4503E68F11A16F040A22F87
S11308F0232F342F4427585FF3CF469537952795F8
S1130900A795F0405395C9F77EF41F16BA0B620BF6
S1130910730B840BBAF09150A1F0FF0FBB1F661F3D
S1130920771F881FC2F70EC0BA0F621F731F841F80
S113093048F4879577956795B795F7959E3F08F0A6
S1130940B3CF9395880F08F09927EE0F9795879565
S113095008950CD0E6C0DED040F0D5D030F021F4BC
S11309605F3F19F0C7C0511110C1CAC0EBD098F352
S11309709923C9F35523B1F3951B550BBB27AA271C
S113098062177307840738F09F5F5F4F220F331F8E
S1130990441FAA1FA9F333D00E2E3AF0E0E830D05A
S11309A091505040E695001CCAF729D0FE2F27D05D
S11309B0660F771F881FBB1F261737074807AB072B
S11309C0B0E809F0BB0B802DBF01FF2793585F4FA0
S11309D02AF09E3F510568F08DC0D7C05F3FECF30D
S11309E0983EDCF3869577956795B795F7959F5F65
S11309F0C9F7880F911D9695879597F90895E1E0B9
S1130A00660F771F881FBB1F621773078407BA0717
S1130A1020F0621B730B840BBA0BEE1F88F7E09572
S1130A20089598D088F09F5790F0B92F9927B7511F
S1130A30A0F0D1F0660F771F881F991F1AF0BA959E
S1130A40C9F712C0B13081F09FD0B1E008959CC0C5
S1130A50672F782F8827B85F39F0B93FCCF3869594
S1130A6077956795B395D9F73EF4909580957095F1
S1130A7061957F4F8F4F9F4F0895E89409C097FB6E
S1130A803EF490958095709561957F4F8F4F9F4F61
S1130A909923A9F0F92F96E9BB279395F6958795A5
S1130AA077956795B795F111F8CFFAF4BB0F11F468
S1130AB060FF1BC06F5F7F4F8F4F9F4F16C088230F
S1130AC011F096E911C0772321F09EE8872F762F45
S1130AD005C0662371F096E8862F70E060E02AF086
S1130AE09A95660F771F881FDAF7880F9695879572
S1130AF097F9089597F99F6780E870E060E008959A
S1130B009FEF80EC089500240A9416161706180621
S1130B100906089500240A941216130614060506FD
S1130B200895092E0394000C11F4882352F0BB0F8E
S1130B3040F4BF2B11F460FF04C06F5F7F4F8F4FF1
S1130B409F4F089557FD9058440F551F59F05F3F2C
S1130B5071F04795880F97FB991F61F09F3F79F0DB
S1130B6087950895121613061406551FF2CF46955D
S1130B70F1DF08C0161617061806991FF1CF8695DF
S1130B807105610508940895E894BB2766277727C3
S1130B90CB0197F908950BD0C4CFB5DF28F0BADFA5
S1130BA018F0952309F0A6CFABCF1124EECFCADFFE
S1130BB0A0F3959FD1F3950F50E0551F629FF0016C
S1130BC0729FBB27F00DB11D639FAA27F00DB11DC5
S1130BD0AA1F649F6627B00DA11D661F829F22274E
S1130BE0B00DA11D621F739FB00DA11D621F839FD5
S1130BF0A00D611D221F749F3327A00D611D231FAB
S1130C00849F600D211D822F762F6A2F11249F57F8
S1130C1050408AF0E1F088234AF0EE0FFF1FBB1F1B
S1130C20661F771F881F91505040A9F79E3F5105BA
S1130C3070F060CFAACF5F3FECF3983EDCF386956B
S1130C4077956795B795F795E7959F5FC1F7FE2B65
S1130C50880F911D9695879597F908957BDFE0F0AD
S1130C609E37D8F09639B8F49E3848F4672F782F19
S1130C708827985FF9CF86957795679593959539E9
S1130C80D0F3B62FB1706B0F711D811D20F48795C1
S1130C9077956795939502C01CC077CF882371F42C
S1130CA0772321F09850872B762F07C0662311F401
S1130CB099270DC09051862B70E060E02AF09A9538
S1130CC0660F771F881FDAF7880F9695879597F92F
S1130CD008959F3F31F0915020F48795779567955B
S1130CE0B795880F911D9695879597F90895A1E278
S1130CF01A2EAA1BBB1BFD010DC0AA1FBB1FEE1F92
S1130D00FF1FA217B307E407F50720F0A21BB30BDC
S1130D10E40BF50B661F771F881F991F1A9469F758
S1130D2060957095809590959B01AC01BD01CF01B4
S1130D300895EE0FFF1F0590F491E02D1994A29FE2
S1130D40B001B39FC001A39F700D811D1124911D9B
S1130D50B29F700D811D1124911D0895CF93DF93CF
S1130D608230910510F482E090E0E091E702F09186
S1130D70E80220E030E0A0E0B0E0309739F14081B3
S1130D80518148175907B8F04817590771F48281FF
S1130D909381109729F013969C938E9312972CC0ED
S1130DA09093E8028093E70227C02115310531F0C2
S1130DB04217530718F0A901DB0101C0EF019A01A2
S1130DC0BD01DF010280F381E02DD7CF211531056C
S1130DD0F9F0281B390B2430310580F48A819B817A
S1130DE06115710521F0FB019383828304C0909304
S1130DF0E8028093E702FE01329644C0FE01E20F4E
S1130E00F31F8193919322503109398328833AC087
S1130E102091E5023091E602232B41F42091020255
S1130E20309103023093E6022093E5022091000200
S1130E30309101022115310541F42DB73EB740919F
S1130E40040250910502241B350BE091E502F09158
S1130E50E602E217F307A0F42E1B3F0B281739070D
S1130E6078F0AC014E5F5F4F2417350748F04E0F02
S1130E705F1F5093E6024093E5028193919302C071
S1130E80E0E0F0E0CF01DF91CF910895CF93DF93BD
S1130E90009709F487C0FC01329713821282C09133
S1130EA0E702D091E802209781F420813181280F54
S1130EB0391F8091E5029091E6028217930779F534
S1130EC0F093E602E093E5026DC0DE0120E030E03D
S1130ED0AE17BF0750F412964D915C9113979D0184
S1130EE04115510509F1DA01F3CFB383A28340819F
S1130EF05181840F951F8A179B0771F48D919C91E2
S1130F001197840F951F02969183808312968D9179
S1130F109C911397938382832115310529F4F093CF
S1130F20E802E093E7023EC0D9011396FC93EE93E6
S1130F3012974D915D91A40FB51FEA17FB0779F441
S1130F4080819181840F951F0296D90111969C93FB
S1130F508E938281938113969C938E931297E0E0F3
S1130F60F0E08A819B81009719F0FE01EC01F9CF32
S1130F70CE01029628813981820F931F2091E502C8
S1130F803091E6022817390769F4309729F4109252
S1130F90E8021092E70202C013821282D093E602A2
S1130FA0C093E502DF91CF9108950F931F93CF93E0
S1130FB0DF93EC018B01009731F46115710519F48D
S1130FC080E090E037C06EE070E081E090E036D2DF
S1130FD0FC010097A9F380E883830115110571F0E2
S1130FE01387028781E883838091E9029091EA0262
S1130FF0892B21F4F093EA02E093E9022097C9F0E7
S1131000D187C0878381826083838091EB02909132
S1131010EC02892B71F4F093EC02E093EB028091E3
S1131020ED029091EE02892B21F4F093EE02E0930D
S1131030ED02CF01DF91CF911F910F910895CF93CE
S1131040DF93CDB7DEB7FE01369661917191AF01A2
S11310508091EB029091EC0203D0DF91CF9108953F
S11310602F923F924F925F926F927F928F929F92B4
S1131070AF92BF92CF92DF92EF92FF920F931F93A2
S1131080CF93DF93CDB7DEB72C970FB6F894DEBFBE
S11310900FBECDBF7C016B018A01FC011782168251
S11310A0838181FFB0C1CE0101964C01F701938188
S11310B0F60193FD859193FF81916F01882309F4D3
S11310C09EC1853239F493FD859193FF81916F011F
S11310D0853221F4B70190E0E8D1E8CF512C312CCE
S11310E020E02032A0F48B3269F030F4803259F0E1
S11310F0833269F420612CC08D3239F0803339F4A5
S1131100216026C02260246023C0286021C027FDFE
S113111027C030ED380F3A3078F426FF06C0FAE0E5
S11311205F9E300D1124532E13C08AE0389E300D7B
S11311301124332E20620CC08E3221F426FD5FC1AF
S1131140206406C08C3611F4206802C0883641F44D
S1131150F60193FD859193FF81916F018111C1CFB8
S1131160982F9F7D9554933028F40C5F1F4FFFE315
S1131170F9830DC0833631F0833771F0833509F07C
S113118057C021C0F801808189830E5F1F4F44241A
S11311904394512C540114C03801F2E06F0E711CB9
S11311A0F801A080B18026FF03C0652D70E002C065
S11311B06FEF7FEFC5012C876DD12C0183012C8546
S11311C02F77222E16C03801F2E06F0E711CF80141
S11311D0A080B18026FF03C0652D70E002C06FEFD0
S11311E07FEFC5012C8744D12C012C852068222E49
S11311F0830123FC19C0832D90E048165906A0F4FE
S1131200B70180E290E051D13A94F5CFF50127FC83
S1131210859127FE81915F01B70190E046D131109D
S11312203A94F1E04F1A51084114510479F7DEC0A1
S1131230843611F0893631F5F80127FF07C0608143
S11312407181828193810C5F1F4F08C0608171811D
S1131250882777FD8095982F0E5F1F4F2F76B22E2B
S113126097FF09C090958095709561957F4F8F4F3A
S11312709F4F2068B22E2AE030E0A40148D1A82E66
S1131280A81843C0853729F42F7EB22E2AE030E017
S113129025C0F22FF97FBF2E8F36C1F018F48835A0
S11312A079F0ADC0803719F0883721F0A8C02F2F0E
S11312B02061B22EB4FE0DC08B2D8460B82E09C0FF
S11312C024FF0AC09F2F9660B92E06C028E030E0A4
S11312D005C020E130E002C020E132E0F801B7FEB1
S11312E007C060817181828193810C5F1F4F06C0AA
S11312F06081718180E090E00E5F1F4FA40107D1EF
S1131300A82EA818FB2DFF77BF2EB6FE0BC02B2DE1
S11313102E7FA51450F4B4FE0AC0B2FC08C02B2DD5
S11313202E7E05C07A2C2B2D03C07A2C01C0752C7F
S113133024FF0DC0FE01EA0DF11D8081803311F4FC
S1131340297E09C022FF06C07394739404C0822FBF
S1131350867809F0739423FD12C020FF06C05A2C2E
S1131360731418F4530C5718732C731460F4B701E6
S113137080E290E02C8799D073942C85F6CF731477
S113138010F4371801C0312C24FF11C0B70180E3D9
S113139090E02C878AD02C8522FF16C021FF03C041
S11313A088E590E002C088E790E0B7010CC0822F86
S11313B0867851F021FD02C080E201C08BE227FD56
S11313C08DE2B70190E071D0A51430F4B70180E349
S11313D090E06BD05A94F8CFAA94F401EA0DF11D71
S11313E08081B70190E061D0A110F6CF332009F4D9
S11313F05DCEB70180E290E058D03A94F7CFF70180
S11314008681978102C08FEF9FEF2C960FB6F894D8
S1131410DEBF0FBECDBFDF91CF911F910F91FF9023
S1131420EF90DF90CF90BF90AF909F908F907F9080
S11314306F905F904F903F902F9008950F931F935C
S1131440CF93DF93869F8001879F100D969F100D89
S11314501124C80183DCEC01009721F0A80160E0AD
S113146070E011D0CE01DF91CF911F910F910895BB
S1131470FC010590615070400110D8F7809590955B
S11314808E0F9F1F0895DC0101C06D9341505040A1
S1131490E0F70895FC016150704001900110D8F705
S11314A0809590958E0F9F1F08950F931F93CF9350
S11314B0DF93182F092FEB018B8181FD03C08FEF80
S11314C09FEF20C082FF10C04E815F812C813D813F
S11314D0421753077CF4E881F9819F012F5F3F4F46
S11314E039832883108306C0E885F985812F1995EF
S11314F0892B29F72E813F812F5F3F4F3F832E8316
S1131500812F902FDF91CF911F910F910895FA01B0
S1131510AA27283051F1203181F1E8946F936E7F2E
S11315206E5F7F4F8F4F9F4FAF4FB1E03ED0B4E01F
S11315303CD0670F781F891F9A1FA11D680F791F60
S11315408A1F911DA11D6A0F711D811D911DA11D71
S113155020D009F468943F912AE0269F1124301981
S1131560305D3193DEF6CF010895462F4770405D1C
S11315704193B3E00FD0C9F7F6CF462F4F70405DCB
S11315804A3318F0495D31FD4052419302D0A9F726
S1131590EACFB4E0A6959795879577956795BA9520
S11315A0C9F700976105710508959B01AC010A2EE6
S11315B006945795479537952795BA95C9F7620FBD
S11115C0731F841F951FA01D0895F894FFCF7C
S11315CE0000EF022000F843414E535441543A2098
S11315DE257800526567697374657220313A007814
S11315EE20766F6C743A2025640A007269677468F9
S11315FE20736C696465723A2025640A0043414E77
S113160E494E54463A2025780A0A00320044415481
S113161E415B25645D3A202564200A00494420720A
S113162E656365697665643A2025303278200A0050
S113163E4C656E6774683A202564200A0041443173
S113164E3A202564200A0047414D45204F56455205
S113165E210054657374696E67206D6F746F722EFA
S113166E2E2E0053656E64696E672025640A00454C
S113167E6E636F6465723A2025640A004461746176
S113168E3A202564006D6573736167652D3E646150
S10F169E74615B355D3A2025640A00008D
S9030000FC
