S00D00004E6F6465322E737265635F
S113000071C000008EC000008CC000008AC00000D7
S113001088C0000086C0000084C0000082C00000C8
S113002080C000007EC000007CC000007AC00000D8
S113003078C0000076C0000074C0000072C00000E8
S113004070C000006EC000006CC000006AC00000F8
S113005068C0000066C0000064C0000062C0000008
S113006060C000005EC000005CC000005AC0000018
S113007058C0000056C0000054C0000052C0000028
S113008050C000004EC000004CC000004AC0000038
S113009048C0000046C0000044C0000042C0000048
S11300A040C000003EC000003CC000003AC0000058
S11300B038C0000036C0000034C0000032C0000068
S11300C030C000002EC000002CC000002AC0000078
S11300D028C0000026C0000024C0000022C0000088
S11300E020C0000011241FBECFEFD1E2DEBFCDBF80
S11300F000E00CBF12E0A0E0B2E0ECE6FCE000E0BF
S11301000BBF02C007900D92A836B107D9F722E0C1
S1130110A8E6B2E001C01D92A437B207E1F708D106
S1130120A3C56ECF5AD060E88FE067D063E08BE25E
S113013064D060E08CE261D060E08DE25ED060E08B
S11301408CE05BD060E08DE058D060E680E655D06E
S113015060E680E752D040E060EE8FE063C008952F
S1130160EF92FF920F931F93CF93DF937C0181E66D
S113017039D090E0F7019183808385E633D0F7018D
S11301808283893040F088E0828387010D5F1F4FAE
S1130190C0E0D0E003C08111F8CF0DC08C2F8A5984
S11301A021D0F80181938F012196F701228130E05B
S11301B0C217D3079CF340E061E08CE233D0DF91B7
S11301C0CF911F910F91FF90EF9008952F9880EC9D
S11301D0BDD02F9A80E090E00895AFD0F7DF80E0A3
S11301E090E00895CF93C82F2F9883E0AFD08C2F41
S11301F0ADD0B1D02F9ACF910895CF93DF93D82F5C
S1130200C62F2F9882E0A2D08D2FA0D08C2F9ED005
S11302102F9ADF91CF9108952F9880EA97D09BD0A1
S11302202F9A08951F93CF93DF93182FD62FC42F9F
S11302302F9885E08BD0812F89D08D2F87D08C2F5C
S113024085D085B18F6785B9DF91CF911F910895CE
S11302500F2EF6E0CF2EF2E0DF2EF02D412C512CA4
S113026006E312E00F2EF5E4AF2EF2E0BF2EF02DE0
S11302700F2EF9E58F2EF2E09F2EF02D41E061E084
S11302808BE2D0DFC9DFC82FC37099279F938F9368
S11302901F92CF93DF92CF92F4D10F900F900F90D3
S11302A00F900F900F90C33021F489E292E0FAD1BD
S11302B003C0C150C23030F78BE090E071D07C01B4
S11302C04FDFF70182818823D9F0E7012396642C5C
S11302D0752C89911F928F937F926F921F930F9326
S11302E0D0D1FFEF6F1A7F0AF701828190E00F905F
S11302F00F900F900F900F900F90681679064CF3A3
S1130300F70181818F9380818F93BF92AF92B9D18E
S1130310F70182811F928F939F928F92B2D18DB7F2
S11303209EB708960FB6F8949EBF0FBE8DBFA6CF9A
S1130330F9DE87E690E023D08BDF84B1876884B947
S11303402398289A8CB581658CBD08958EBD0DB413
S113035007FEFDCF089580E0F9DF8EB50895E0EC47
S1130360F0E0908195FFFDCF8093C6000895E0EC06
S1130370F0E080818823ECF78091C6000895909383
S1130380C5008093C40088E18093C10067EB71E0ED
S11303908FEA91E02CD190936902809368020895CA
S11303A0CF93DF938230910510F482E090E0E091E6
S11303B06C02F0916D0220E030E0A0E0B0E03097F4
S11303C039F14081518148175907B8F04817590746
S11303D071F482819381109729F013969C938E93E4
S11303E012972CC090936D0280936C0227C0211544
S11303F0310531F04217530718F0A901DB0101C0A0
S1130400EF019A01BD01DF010280F381E02DD7CF16
S113041021153105F9F0281B390B2430310580F4FE
S11304208A819B816115710521F0FB01938382838D
S113043004C090936D0280936C02FE01329644C016
S1130440FE01E20FF31F8193919322503109398306
S113045028833AC020916A0230916B02232B41F425
S1130460209102023091030230936B0220936A02BE
S113047020910002309101022115310541F42DB77C
S11304803EB74091040250910502241B350BE091C4
S11304906A02F0916B02E217F307A0F42E1B3F0BE4
S11304A02817390778F0AC014E5F5F4F24173507E2
S11304B048F04E0F5F1F50936B0240936A02819382
S11304C0919302C0E0E0F0E0CF01DF91CF91089575
S11304D0CF93DF93009709F487C0FC01329713820E
S11304E01282C0916C02D0916D02209781F4208118
S11304F03181280F391F80916A0290916B02821713
S1130500930779F5F0936B02E0936A026DC0DE0104
S113051020E030E0AE17BF0750F412964D915C9185
S113052013979D014115510509F1DA01F3CFB38306
S1130530A28340815181840F951F8A179B0771F410
S11305408D919C911197840F951F029691838083BE
S113055012968D919C911397938382832115310573
S113056029F4F0936D02E0936C023EC0D901139616
S1130570FC93EE9312974D915D91A40FB51FEA176A
S1130580FB0779F480819181840F951F0296D9012C
S113059011969C938E938281938113969C938E9350
S11305A01297E0E0F0E08A819B81009719F0FE0148
S11305B0EC01F9CFCE01029628813981820F931F75
S11305C020916A0230916B022817390769F4309739
S11305D029F410926D0210926C0202C013821282EE
S11305E0D0936B02C0936A02DF91CF9108950F9369
S11305F01F93CF93DF93EC018B01009731F46115C6
S1130600710519F480E090E037C06EE070E081E09D
S113061090E063D2FC010097A9F380E8838301157D
S1130620110571F01387028781E8838380916E023C
S113063090916F02892B21F4F0936F02E0936E0284
S11306402097C9F0D187C08783818260838380919A
S1130650700290917102892B71F4F0937102E0930E
S113066070028091720290917302892B21F4F093AD
S11306707302E0937202CF01DF91CF911F910F912A
S11306800895CF93DF93CDB7DEB7FE01369661911F
S11306907191AF01809170029091710230D0DF911D
S11306A0CF9108950F931F93CF93DF93E09170023E
S11306B0F0917102238121FF1BC0EC0100E010E0E6
S11306C089916091700270917102DB011896ED912D
S11306D0FC911997882331F01995892B89F30FEF31
S11306E01FEFEECF8AE01995892B11F4C80102C0DF
S11306F08FEF9FEFDF91CF911F910F9108952F926C
S11307003F924F925F926F927F928F929F92AF929D
S1130710BF92CF92DF92EF92FF920F931F93CF93EA
S1130720DF93CDB7DEB72C970FB6F894DEBF0FBEBC
S1130730CDBF7C016B018A01FC0117821682838183
S113074081FFB0C1CE0101964C01F7019381F601FE
S113075093FD859193FF81916F01882309F49EC1D4
S1130760853239F493FD859193FF81916F01853230
S113077021F4B70190E0E8D1E8CF512C312C20E0EE
S11307802032A0F48B3269F030F4803259F0833295
S113079069F420612CC08D3239F0803339F4216042
S11307A026C02260246023C0286021C027FD27C002
S11307B030ED380F3A3078F426FF06C0FAE05F9E39
S11307C0300D1124532E13C08AE0389E300D1124AD
S11307D0332E20620CC08E3221F426FD5FC12064CA
S11307E006C08C3611F4206802C0883641F4F60144
S11307F093FD859193FF81916F018111C1CF982F52
S11308009F7D9554933028F40C5F1F4FFFE3F983C9
S11308100DC0833631F0833771F0833509F057C04A
S113082021C0F801808189830E5F1F4F44244394C3
S1130830512C540114C03801F2E06F0E711CF80100
S1130840A080B18026FF03C0652D70E002C06FEF69
S11308507FEFC5012C876DD12C0183012C852F7767
S1130860222E16C03801F2E06F0E711CF801A08030
S1130870B18026FF03C0652D70E002C06FEF7FEFEB
S1130880C5012C8744D12C012C852068222E83019C
S113089023FC19C0832D90E048165906A0F4B70133
S11308A080E290E051D13A94F5CFF50127FC85918F
S11308B027FE81915F01B70190E046D131103A944F
S11308C0F1E04F1A51084114510479F7DEC084361F
S11308D011F0893631F5F80127FF07C06081718175
S11308E0828193810C5F1F4F08C0608171818827CA
S11308F077FD8095982F0E5F1F4F2F76B22E97FFAE
S113090009C090958095709561957F4F8F4F9F4F4B
S11309102068B22E2AE030E0A40148D1A82EA818FD
S113092043C0853729F42F7EB22E2AE030E025C05B
S1130930F22FF97FBF2E8F36C1F018F4883579F085
S1130940ADC0803719F0883721F0A8C02F2F20615F
S1130950B22EB4FE0DC08B2D8460B82E09C024FFC6
S11309600AC09F2F9660B92E06C028E030E005C06B
S113097020E130E002C020E132E0F801B7FE07C018
S113098060817181828193810C5F1F4F06C06081F9
S1130990718180E090E00E5F1F4FA40107D1A82E63
S11309A0A818FB2DFF77BF2EB6FE0BC02B2D2E7F74
S11309B0A51450F4B4FE0AC0B2FC08C02B2D2E7E40
S11309C005C07A2C2B2D03C07A2C01C0752C24FF72
S11309D00DC0FE01EA0DF11D8081803311F4297EE2
S11309E009C022FF06C07394739404C0822F8678D2
S11309F009F0739423FD12C020FF06C05A2C73140F
S1130A0018F4530C5718732C731460F4B70180E274
S1130A1090E02C8799D073942C85F6CF731410F43E
S1130A20371801C0312C24FF11C0B70180E390E0D6
S1130A302C878AD02C8522FF16C021FF03C088E5AD
S1130A4090E002C088E790E0B7010CC0822F86785E
S1130A5051F021FD02C080E201C08BE227FD8DE24E
S1130A60B70190E071D0A51430F4B70180E390E0B1
S1130A706BD05A94F8CFAA94F401EA0DF11D808149
S1130A80B70190E061D0A110F6CF332009F45DCE18
S1130A90B70180E290E058D03A94F7CFF70186810D
S1130AA0978102C08FEF9FEF2C960FB6F894DEBFAC
S1130AB00FBECDBFDF91CF911F910F91FF90EF90AB
S1130AC0DF90CF90BF90AF909F908F907F906F906A
S1130AD05F904F903F902F9008950F931F93CF9363
S1130AE0DF93869F8001879F100D969F100D112420
S1130AF0C80156DCEC01009721F0A80160E070E029
S1130B0011D0CE01DF91CF911F910F910895FC0177
S1130B100590615070400110D8F7809590958E0F24
S1130B209F1F0895DC0101C06D9341505040E0F7D0
S1130B300895FC016150704001900110D8F7809530
S1130B4090958E0F9F1F08950F931F93CF93DF935C
S1130B50182F092FEB018B8181FD03C08FEF9FEFCD
S1130B6020C082FF10C04E815F812C813D814217DD
S1130B7053077CF4E881F9819F012F5F3F4F39834C
S1130B802883108306C0E885F985812F1995892B60
S1130B9029F72E813F812F5F3F4F3F832E83812F83
S1130BA0902FDF91CF911F910F910895FA01AA27F9
S1130BB0283051F1203181F1E8946F936E7F6E5F9C
S1130BC07F4F8F4F9F4FAF4FB1E03ED0B4E03CD04A
S1130BD0670F781F891F9A1FA11D680F791F8A1F2D
S1130BE0911DA11D6A0F711D811D911DA11D20D094
S1130BF009F468943F912AE0269F11243019305D4E
S1130C003193DEF6CF010895462F4770405D41933E
S1130C10B3E00FD0C9F7F6CF462F4F70405D4A338B
S1130C2018F0495D31FD4052419302D0A9F7EACF53
S1130C30B4E0A6959795879577956795BA95C9F782
S1130C4000976105710508959B01AC010A2E069475
S1130C505795479537952795BA95C9F7620F731F2E
S10F0C60841F951FA01D0895F894FFCF79
S1130C6C0000740220005374617475733A20256477
S1130C7C2C204D43505F726561645F7374617475AD
S1130C8C732829202564200A00666C61676720316B
S1130C9C206F67203200444154415B25645D3A2047
S1130CAC2564200A0049442072656365697665648D
S1130CBC3A2025303278200A004C656E6774683A05
S10B0CCC202564200A00310018
S9030000FC
