S00D00004E6F6465322E737265635F
S1130000C2C00000DFC00000DDC00000DBC0000093
S1130010D9C00000D7C00000D5C00000D3C0000084
S1130020D1C00000CFC00000CDC00000CBC0000094
S1130030C9C00000C7C00000C5C00000C3C00000A4
S1130040C1C00000BFC00000BDC00000BBC00000B4
S1130050B9C00000B7C00000B5C00000B3C00000C4
S1130060B1C00000AFC00000ADC00000ABC00000D4
S1130070A9C00000A7C00000A5C00000A3C00000E4
S1130080A1C000009FC000009DC000009BC00000F4
S113009099C0000097C0000095C0000000C2000095
S11300A091C000008FC000008DC000008BC0000014
S11300B089C0000087C0000085C0000083C0000024
S11300C081C000007FC000007DC000007BC0000034
S11300D079C0000077C0000075C0000073C0000044
S11300E071C000006A02BC02BC02BC02BC02BC02B9
S11300F0BC02BC026A02BC02BC02BC02BC02BC025E
S1130100BC02BC026C02BC02BC02BC02BC02BC024B
S1130110BC02BC02BC02BC02BC02BC02BC02BC02EB
S1130120BC02BC026C02BC02BC02BC02BC02BC022B
S1130130BC02BC02BC02BC02BC02BC02BC02BC02CB
S1130140BC02BC02B802BC02BC02BC02BC02BC02BF
S1130150BC02BC029502BC02BC02BC02BC02BC02D2
S1130160BC02BC02BC02BC02BC02BC02BC02BC029B
S1130170BC02BC028902BC02BC02BC02BC02BC02BE
S1130180BC02BC02A70211241FBECFEFD1E2DEBF26
S1130190CDBF00E00CBF12E0A0E0B2E0EEEBFEE069
S11301A000E00BBF02C007900D92A433B107D9F74A
S11301B022E0A4E3B2E001C01D92A734B207E1F744
S11301C023D17BC61DCF80E480937C0088E080939C
S11301D07B0080E880937A000895CF93DF939FD0CB
S11301E060E88FE0B0D08EE0A3D01F928F93C7E079
S11301F0D2E0DF93CF936ED360E08BE2A4D060E0D3
S11302008CE2A1D060E08DE29ED060E08CE09BD0D7
S113021060E08DE098D060E680E695D060E680E707
S113022092D060E08FE08FD08EE082D01F928F93C7
S1130230DF93CF934FD38DB79EB708960FB6F8943C
S11302409EBF0FBE8DBFDF91CF910895EF92FF92B5
S11302500F931F93CF93DF938C016130710549F5A0
S113026081E766D090E0F8019183808385E760D0D0
S1130270F8018283893048F088E082837801F3E0D2
S1130280EF0EF11CC0E0D0E003C08111F7CF0DC028
S11302908C2F8A584DD0F70181937F012196F80164
S11302A0828190E0C817D9079CF360E08CE24BD0C0
S11302B028C081E63DD090E0F8019183808385E6F3
S11302C037D0F8018283893048F088E0828378014E
S11302D0F3E0EF0EF11CC0E0D0E003C08111F7CFD2
S11302E00DC08C2F8A5924D0F70181937F01219668
S11302F0F801828190E0C817D9079CF360E08CE292
S113030022D0DF91CF911F910F91FF90EF9008952C
S11303102F9880EC8BD02F9A80E090E008957DD0C8
S1130320F7DF85E38A95F1F7000080E090E0089517
S1130330CF93C82F2F9883E079D08C2F77D07BD0A0
S11303402F9ACF910895CF93DF93D82FC62F2F984C
S113035082E06CD08D2F6AD08C2F68D02F9ADF91D9
S1130360CF910895E1E0F1E080818A638083109267
S11303700701E2E0F1E08081897F80838AE68A9543
S1130380F1F700C080818064808359D07894089507
S1130390CF93DF9300D0CDB7DEB7E2E0F1E0208168
S11303A02061208399232CF4208122602083382F1C
S11303B031951816190634F4E2E0F1E090819D7F3E
S11303C09083382F80E589831A823B8363E0CE01D2
S11303D0019643D003C088E292E08DD23AD08111D5
S11303E0FACF0F900F900F90DF91CF9108958BE08B
S11303F090E0FFD0EC0160E070E028DF8B8190E0BA
S113040080589109C5DFF3CF87E690E0DBD087DF22
S1130410E4DED9DEA7DF7894EADF84B1876884B9A3
S11304202398289A8CB581658CBD08958EBD0DB432
S113043007FEFDCF089580E0F9DF8EB508958CE0C6
S11304408093B8008FEF8093BB0084E08093BC005E
S113045008958091BC0081700895ECEBF0E0208158
S113046020FDFDCF60933602FC01208120933702EA
S113047020FD0CC0623050F0DC011196E8E3F2E09C
S113048081E09D9191938F5F8613FBCF109235028B
S113049088EF8093060285EA8093BC0008951F923A
S11304A00F920FB60F9211240BB60F922F933F9316
S11304B08F939F93AF93BF93EF93FF938091B90072
S11304C090E0FC013897E135F10508F055C0EE588D
S11304D0FF4F89C010923402E091340280913602B9
S11304E0E81770F481E08E0F80933402F0E0E95C49
S11304F0FD4F80818093BB0085E88093BC0043C09E
S11305008091350281608093350284E98093BC0038
S11305103AC0E091340281E08E0F809334028091DE
S1130520BB00F0E0E95CFD4F80832091340230E0B1
S11305308091360290E001972817390724F485EC5E
S11305408093BC0020C085E88093BC001CC08091CF
S1130550BB00E0913402F0E0E95CFD4F80838091C0
S1130560350281608093350284E98093BC000BC01E
S113057085EA8093BC0007C08091B900809306028D
S113058084E08093BC00FF91EF91BF91AF919F9164
S11305908F913F912F910F900BBE0F900FBE0F9034
S11305A01F901895E0ECF0E0908195FFFDCF8093CB
S11305B0C6000895E0ECF0E080818823ECF7809198
S11305C0C60008959093C5008093C40088E1809389
S11305D0C1006AED72E082ED92E032D190933C0268
S11305E080933B020895EE0FFF1F0590F491E02DD8
S11305F01994CF93DF938230910510F482E090E058
S1130600E0913F02F091400220E030E0A0E0B0E051
S1130610309739F14081518148175907B8F048178C
S1130620590771F482819381109729F013969C9352
S11306308E9312972CC09093400280933F0227C060
S11306402115310531F04217530718F0A901DB01D8
S113065001C0EF019A01BD01DF010280F381E02DA9
S1130660D7CF21153105F9F0281B390B243031057A
S113067080F48A819B816115710521F0FB019383CC
S1130680828304C09093400280933F02FE0132961D
S113069044C0FE01E20FF31F81939193225031096C
S11306A0398328833AC020913D0230913E02232BA6
S11306B041F4209102023091030230933E022093D0
S11306C03D0220910002309101022115310541F4CF
S11306D02DB73EB74091040250910502241B350BFF
S11306E0E0913D02F0913E02E217F307A0F42E1BC5
S11306F03F0B2817390778F0AC014E5F5F4F241782
S1130700350748F04E0F5F1F50933E0240933D0261
S11307108193919302C0E0E0F0E0CF01DF91CF91AB
S11307200895CF93DF93009709F487C0FC013297B3
S113073013821282C0913F02D0914002209781F42B
S113074020813181280F391F80913D0290913E0212
S11307508217930779F5F0933E02E0933D026DC052
S1130760DE0120E030E0AE17BF0750F412964D9141
S11307705C9113979D014115510509F1DA01F3CFFD
S1130780B383A28340815181840F951F8A179B07ED
S113079071F48D919C911197840F951F029691830A
S11307A0808312968D919C91139793838283211554
S11307B0310529F4F0934002E0933F023EC0D90191
S11307C01396FC93EE9312974D915D91A40FB51F70
S11307D0EA17FB0779F480819181840F951F0296B3
S11307E0D90111969C938E938281938113969C9345
S11307F08E931297E0E0F0E08A819B81009719F0D4
S1130800FE01EC01F9CFCE01029628813981820FD5
S1130810931F20913D0230913E022817390769F455
S1130820309729F41092400210923F0202C01382C2
S11308301282D0933E02C0933D02DF91CF9108957E
S11308400F931F93CF93DF93EC018B01009731F447
S11308506115710519F480E090E037C06EE070E036
S113086081E090E063D2FC010097A9F380E88383E0
S11308700115110571F01387028781E88383809144
S1130880410290914202892B21F4F0934202E093B9
S113089041022097C9F0D187C08783818260838316
S11308A08091430290914402892B71F4F0934402A5
S11308B0E09343028091450290914602892B21F4F2
S11308C0F0934602E0934502CF01DF91CF911F914F
S11308D00F910895CF93DF93CDB7DEB7FE0136961F
S11308E061917191AF01809143029091440230D0A3
S11308F0DF91CF9108950F931F93CF93DF93E091EE
S11309004302F0914402238121FF1BC0EC0100E06B
S113091010E089916091430270914402DB011896C2
S1130920ED91FC911997882331F01995892B89F35E
S11309300FEF1FEFEECF8AE01995892B11F4C80150
S113094002C08FEF9FEFDF91CF911F910F91089518
S11309502F923F924F925F926F927F928F929F92CB
S1130960AF92BF92CF92DF92EF92FF920F931F93B9
S1130970CF93DF93CDB7DEB72C970FB6F894DEBFD5
S11309800FBECDBF7C016B018A01FC011782168268
S1130990838181FFB0C1CE0101964C01F70193819F
S11309A0F60193FD859193FF81916F01882309F4EA
S11309B09EC1853239F493FD859193FF81916F0136
S11309C0853221F4B70190E0E8D1E8CF512C312CE5
S11309D020E02032A0F48B3269F030F4803259F0F8
S11309E0833269F420612CC08D3239F0803339F4BC
S11309F0216026C02260246023C0286021C027FD16
S1130A0027C030ED380F3A3078F426FF06C0FAE0FC
S1130A105F9E300D1124532E13C08AE0389E300D92
S1130A201124332E20620CC08E3221F426FD5FC1C6
S1130A30206406C08C3611F4206802C0883641F464
S1130A40F60193FD859193FF81916F018111C1CFCF
S1130A50982F9F7D9554933028F40C5F1F4FFFE32C
S1130A60F9830DC0833631F0833771F0833509F093
S1130A7057C021C0F801808189830E5F1F4F442431
S1130A804394512C540114C03801F2E06F0E711CD0
S1130A90F801A080B18026FF03C0652D70E002C07C
S1130AA06FEF7FEFC5012C876DD12C0183012C855D
S1130AB02F77222E16C03801F2E06F0E711CF80158
S1130AC0A080B18026FF03C0652D70E002C06FEFE7
S1130AD07FEFC5012C8744D12C012C852068222E60
S1130AE0830123FC19C0832D90E048165906A0F415
S1130AF0B70180E290E051D13A94F5CFF50127FC9B
S1130B00859127FE81915F01B70190E046D13110B4
S1130B103A94F1E04F1A51084114510479F7DEC0B8
S1130B20843611F0893631F5F80127FF07C060815A
S1130B307181828193810C5F1F4F08C06081718134
S1130B40882777FD8095982F0E5F1F4F2F76B22E42
S1130B5097FF09C090958095709561957F4F8F4F51
S1130B609F4F2068B22E2AE030E0A40148D1A82E7D
S1130B70A81843C0853729F42F7EB22E2AE030E02E
S1130B8025C0F22FF97FBF2E8F36C1F018F48835B7
S1130B9079F0ADC0803719F0883721F0A8C02F2F25
S1130BA02061B22EB4FE0DC08B2D8460B82E09C016
S1130BB024FF0AC09F2F9660B92E06C028E030E0BB
S1130BC005C020E130E002C020E132E0F801B7FEC8
S1130BD007C060817181828193810C5F1F4F06C0C1
S1130BE06081718180E090E00E5F1F4FA40107D106
S1130BF0A82EA818FB2DFF77BF2EB6FE0BC02B2DF9
S1130C002E7FA51450F4B4FE0AC0B2FC08C02B2DEC
S1130C102E7E05C07A2C2B2D03C07A2C01C0752C96
S1130C2024FF0DC0FE01EA0DF11D8081803311F413
S1130C30297E09C022FF06C07394739404C0822FD6
S1130C40867809F0739423FD12C020FF06C05A2C45
S1130C50731418F4530C5718732C731460F4B701FD
S1130C6080E290E02C8799D073942C85F6CF73148E
S1130C7010F4371801C0312C24FF11C0B70180E3F0
S1130C8090E02C878AD02C8522FF16C021FF03C058
S1130C9088E590E002C088E790E0B7010CC0822F9D
S1130CA0867851F021FD02C080E201C08BE227FD6D
S1130CB08DE2B70190E071D0A51430F4B70180E360
S1130CC090E06BD05A94F8CFAA94F401EA0DF11D88
S1130CD08081B70190E061D0A110F6CF332009F4F0
S1130CE05DCEB70180E290E058D03A94F7CFF70197
S1130CF08681978102C08FEF9FEF2C960FB6F894F0
S1130D00DEBF0FBECDBFDF91CF911F910F91FF903A
S1130D10EF90DF90CF90BF90AF909F908F907F9097
S1130D206F905F904F903F902F9008950F931F9373
S1130D30CF93DF93869F8001879F100D969F100DA0
S1130D401124C80156DCEC01009721F0A80160E0F1
S1130D5070E011D0CE01DF91CF911F910F910895D2
S1130D60FC010590615070400110D8F78095909572
S1130D708E0F9F1F0895DC0101C06D9341505040B8
S1130D80E0F70895FC016150704001900110D8F71C
S1130D90809590958E0F9F1F08950F931F93CF9367
S1130DA0DF93182F092FEB018B8181FD03C08FEF97
S1130DB09FEF20C082FF10C04E815F812C813D8156
S1130DC0421753077CF4E881F9819F012F5F3F4F5D
S1130DD039832883108306C0E885F985812F199506
S1130DE0892B29F72E813F812F5F3F4F3F832E832D
S1130DF0812F902FDF91CF911F910F910895FA01C8
S1130E00AA27283051F1203181F1E8946F936E7F45
S1130E106E5F7F4F8F4F9F4FAF4FB1E03ED0B4E036
S1130E203CD0670F781F891F9A1FA11D680F791F77
S1130E308A1F911DA11D6A0F711D811D911DA11D88
S1130E4020D009F468943F912AE0269F1124301998
S1130E50305D3193DEF6CF010895462F4770405D33
S1130E604193B3E00FD0C9F7F6CF462F4F70405DE2
S1130E704A3318F0495D31FD4052419302D0A9F73D
S1130E80EACFB4E0A6959795879577956795BA9537
S1130E90C9F700976105710508959B01AC010A2EFD
S1130EA006945795479537952795BA95C9F7620FD4
S1110EB0731F841F951FA01D0895F894FFCF93
S1130EBE000047022000F843414E535441543A2057
S1130ECE2578000A43616E2049442073656E743A96
S1130EDE2025303278200A006275697A7A7A792E62
S1070EEE2E2E0000A0
S9030000FC
