S00D00004E6F6465322E737265635F
S113000071C000008EC000008CC000008AC00000D7
S113001088C0000086C0000084C0000082C00000C8
S113002080C000007EC000007CC000007AC00000D8
S113003078C0000076C0000074C0000072C00000E8
S113004070C000006EC000006CC000006AC00000F8
S113005068C0000066C0000064C0000062C0000008
S113006060C000005EC000005CC000005AC0000018
S113007058C0000056C0000054C0000052C0000028
S113008050C000004EC000004CC000004AC0000038
S113009048C0000046C0000044C0000042C0000048
S11300A040C000003EC000003CC000003AC0000058
S11300B038C0000036C0000034C0000032C0000068
S11300C030C000002EC000002CC000002AC0000078
S11300D028C0000026C0000024C0000022C0000088
S11300E020C0000011241FBECFEFD1E2DEBFCDBF80
S11300F000E00CBF12E0A0E0B2E0E6EBF5E000E0C7
S11301000BBF02C007900D92A630B107D9F722E0C9
S1130110A6E0B2E001C01D92A231B207E1F737D0E8
S113012048C26ECFECE7F0E0808182608083EAE72A
S1130130F0E0808180648083808184FFFDCF209102
S113014078008091790090E0982F8827820F911D84
S113015008952CD060E88FE02ED063E08BE22BD0A2
S113016060E08CE228D060E08DE225D060E08CE095
S113017022D060E08DE01FD060E680E61CD060E60F
S113018080E719D040E060EE8FE024C008950ED0DF
S1130190E0DF36D087E690E069D0C4DFFECF2F9849
S11301A080EC4FD02F9A80E090E0089541D0F7DFA3
S11301B080E090E00895CF93DF93D82FC62F2F9837
S11301C082E03FD08D2F3DD08C2F3BD02F9ADF91F2
S11301D0CF9108951F93CF93DF93182FD62FC42F59
S11301E02F9885E02ED0812F2CD08D2F2AD08C2FC4
S11301F028D085B18F6785B9DF91CF911F9108957C
S113020081EE94E09093870080938600269A8EE393
S113021090E090938B0080938A00E0E8F0E0808186
S113022082628083E1E8F0E080818C6180830895BC
S113023084B1876884B92398289A8CB581658CBD6C
S113024008958EBD0DB407FEFDCF0895E0ECF0E0F7
S1130250908195FFFDCF8093C6000895E0ECF0E017
S113026080818823ECF78091C60008959093C5009F
S11302708093C40088E18093C1006EE271E086E25D
S113028091E02CD190930702809306020895CF93B6
S1130290DF938230910510F482E090E0E0910A024D
S11302A0F0910B0220E030E0A0E0B0E0309739F1AB
S11302B04081518148175907B8F04817590771F41C
S11302C082819381109729F013969C938E931297B1
S11302D02CC090930B0280930A0227C0211531058C
S11302E031F04217530718F0A901DB0101C0EF01F7
S11302F09A01BD01DF010280F381E02DD7CF2115E2
S11303003105F9F0281B390B2430310580F48A813A
S11303109B816115710521F0FB019383828304C0E5
S113032090930B0280930A02FE01329644C0FE01B0
S1130330E20FF31F8193919322503109398328836B
S11303403AC02091080230910902232B41F42091F4
S11303500202309103023093090220930802209193
S11303600002309101022115310541F42DB73EB749
S11303704091040250910502241B350BE0910802C0
S1130380F0910902E217F307A0F42E1B3F0B281784
S1130390390778F0AC014E5F5F4F2417350748F0FA
S11303A04E0F5F1F5093090240930802819391936B
S11303B002C0E0E0F0E0CF01DF91CF910895CF9348
S11303C0DF93009709F487C0FC01329713821282ED
S11303D0C0910A02D0910B02209781F420813181CF
S11303E0280F391F80910802909109028217930700
S11303F079F5F0930902E09308026DC0DE0120E074
S113040030E0AE17BF0750F412964D915C911397EC
S11304109D014115510509F1DA01F3CFB383A2839C
S113042040815181840F951F8A179B0771F48D9128
S11304309C911197840F951F029691838083129645
S11304408D919C911397938382832115310529F40F
S1130450F0930B02E0930A023EC0D9011396FC9379
S1130460EE9312974D915D91A40FB51FEA17FB0708
S113047079F480819181840F951F0296D901119698
S11304809C938E938281938113969C938E9312975F
S1130490E0E0F0E08A819B81009719F0FE01EC0115
S11304A0F9CFCE01029628813981820F931F2091C2
S11304B00802309109022817390769F4309729F4A2
S11304C010920B0210920A0202C013821282D0937D
S11304D00902C0930802DF91CF9108950F931F93EF
S11304E0CF93DF93EC018B01009731F46115710513
S11304F019F480E090E037C06EE070E081E090E0B5
S113050037D0FC010097A9F380E883830115110516
S113051071F01387028781E8838380910C029091A4
S11305200D02892B21F4F0930D02E0930C02209725
S1130530C9F0D187C08783818260838380910E0252
S113054090910F02892B71F4F0930F02E0930E0245
S11305508091100290911102892B21F4F0931102E1
S1130560E0931002CF01DF91CF911F910F91089575
S11305700F931F93CF93DF93869F8001879F100D66
S1130580969F100D1124C80182DEEC01009721F022
S1130590A80160E070E006D0CE01DF91CF911F91F9
S11305A00F910895DC0101C06D9341505040E0F774
S10905B00895F894FFCF4A
S10905B600001202200007
S9030000FC
