S01200004763634279676765726E2E7372656337
S11300000C9438000C9455000C9455000C94550035
S11300100C9455000C9455000C9455000C94550008
S11300200C9455000C9455000C9455000C945500F8
S11300300C9455000C9455000C9455000C945500E8
S11300400C9455000C9455000C9455000C945500D8
S11300500C9455000C9455000C9455000C945500C8
S11300600C9455000C9455000C9455000C945500B8
S113007011241FBECFEFD4E0DEBFCDBF11E0A0E05E
S1130080B1E0ECE9F4E002C005900D92A630B107AE
S1130090D9F721E0A6E0B1E001C01D92A231B20778
S11300A0E1F70E9457000C944C020C9400008FE17D
S11300B090E00E94A8000E94720080E00E946A0002
S11300C080E10E946A0080EB0E946A008FE00E9437
S11300D06E00F3CF8093001080E0089580930012A7
S11300E080E00895E0E0F0E18EEA808381EA808395
S11300F08AED808382E1808388EC808388EA808330
S11301008FE3808385ED808380E8808381E880832A
S113011080E5808389ED808381E2808380E280832F
S113012082E080838DEB808380E380838DEA80830B
S1130130108284EA808386EA80838FEA808308952C
S11301405D9BFECF8CB908955F9BFECF8CB1089563
S113015090BD89B988E18AB964EA70E080EA90E0E8
S11301600E94B700909307018093060108950F93AE
S11301701F93CF93DF93EC018B01009731F461154A
S1130180710519F480E090E038C06EE070E081E021
S113019090E00E940201FC010097A1F380E88383B0
S11301A00115110571F01387028781E8838380911B
S11301B0080190910901892B21F4F0930901E0933E
S11301C008012097C9F0D187C08783818260838327
S11301D080910A0190910B01892B71F4F0930B012A
S11301E0E0930A0180910C0190910D01892B21F477
S11301F0F0930D01E0930C01CF01DF91CF911F919A
S11302000F9108950F931F93CF93DF93869F8001DF
S1130210879F100D969F100D1124C8010E941E0186
S1130220EC01009729F0A80160E070E00E9445020B
S1130230CE01DF91CF911F910F910895CF93DF935A
S11302408230910510F482E090E0E0911001F09189
S1130250110120E030E0A0E0B0E0309739F14081B6
S1130260518148175907B8F04817590771F482812A
S11302709381109729F013969C938E9312972CC018
S1130280909311018093100127C02115310531F09D
S11302904217530718F0A901DB0101C0EF019A01CD
S11302A0BD01DF010280F381E02DD7CF2115310597
S11302B0F9F0281B390B2430310580F48A819B81A5
S11302C06115710521F0FB019383828304C090932F
S11302D0110180931001FE01329644C0FE01E20F29
S11302E0F31F8193919322503109398328833AC0B3
S11302F020910E0130910F01232B41F42091020132
S11303003091030130930F0120930E0120910001DD
S1130310309101012115310541F42DB73EB74091CB
S1130320040150910501241B350BE0910E01F0915D
S11303300F01E217F307A0F42E1B3F0B2817390710
S113034078F0AC014E5F5F4F2417350748F04E0F2D
S11303505F1F50930F0140930E018193919302C04C
S1130360E0E0F0E0CF01DF91CF910895CF93DF93E8
S1130370009709F487C0FC01329713821282C0915E
S11303801001D0911101209781F420813181280F2F
S1130390391F80910E0190910F018217930779F50F
S11303A0F0930F01E0930E016DC0DE0120E030E018
S11303B0AE17BF0750F412964D915C9113979D01AF
S11303C04115510509F1DA01F3CFB383A2834081CA
S11303D05181840F951F8A179B0771F48D919C910D
S11303E01197840F951F02969183808312968D91A5
S11303F09C911397938382832115310529F4F093FB
S11304001101E09310013EC0D9011396FC93EE93C1
S113041012974D915D91A40FB51FEA17FB0779F46C
S113042080819181840F951F0296D90111969C9326
S11304308E938281938113969C938E931297E0E01E
S1130440F0E08A819B81009719F0FE01EC01F9CF5D
S1130450CE01029628813981820F931F20910E01CB
S113046030910F012817390769F4309729F4109255
S113047011011092100102C013821282D0930F0155
S1130480C0930E01DF91CF910895DC0101C06D93FB
S10F049041505040E0F70895F894FFCF6D
S109049C00001201200023
S9030000FC
