S014000050696E67506F6E6747616D652E7372656374
S11300000C9438000C9455000C9455000C94550035
S11300100C9455000C9455000C9455000C94550008
S11300200C9455000C9455000C9455000C945500F8
S11300300C9455000C9455000C9455000C945500E8
S11300400C9455000C9455000C9455000C945500D8
S11300500C9455000C9455000C9455000C945500C8
S11300600C9455000C9455000C9455000C945500B8
S113007011241FBECFEFD4E0DEBFCDBF11E0A0E05E
S1130080B1E0ECE2FDE002C005900D92A23AB107A6
S1130090D9F721E0A2EAB1E001C01D92AE3AB2075D
S11300A0E1F70E94BD010C9494060C9400000E9498
S11300B0C60160E88FE00E94E30163E08BE20E94E6
S11300C0E30160E08CE20E94E30160E08DE20E94C3
S11300D0E30160E08CE00E94E30160E08DE00E94B7
S11300E0E30160E680E60E94E30160E680E70E94A7
S11300F0E30140E460EE8FE00E94FA010895CF929C
S1130100DF92EF92FF920F931F93CF93DF93CDB7BC
S1130110DEB72B970FB6F894DEBF0FBECDBFE982D2
S1130120FA820B831C832D833E834F835887698710
S11301307A878B8789819A81BC01769567957695B4
S113014067957695679581E30E94E301602F85E3C7
S11301500E94E301C02ED12C1C141D0494F47E01D2
S113016084E0E80EF11C00E010E0F70161917F01EA
S113017086E3800F0E94E3010F5F1F4F0C151D05DE
S1130180A4F381E890E00E94F5012B960FB6F89451
S1130190DEBF0FBECDBFDF91CF911F910F91FF90B6
S11301A0EF90DF90CF9008958F929F92AF92BF927D
S11301B0CF92DF92EF92FF920F931F93CF93DF932F
S11301C0CDB7DEB72B970FB6F894DEBF0FBECDBF09
S11301D06C0181E60E94D501A82EB12C85E60E940F
S11301E0D501882E8823A1F08E010C5F1F4F780162
S11301F0E80EF11C0F2EF6E69F2EF02D892D0E949D
S1130200D501F80181938F019394EE15FF05B1F7A1
S113021040E061E08CE20E94FA01BA82A9828B82FA
S11302208BE0FE013196D60101900D928A95E1F79B
S1130230C6012B960FB6F894DEBF0FBECDBFDF917B
S1130240CF911F910F91FF90EF90DF90CF90BF90CF
S1130250AF909F908F9008959F92AF92BF92CF924C
S1130260DF92EF92FF920F931F93CF93DF93CDB75B
S1130270DEB766970FB6F894DEBF0FBECDBF8AE235
S113028090E09A83898385E08B8384E08C838D83DB
S113029082E08E8389E08F8381E088870E94CE018B
S11302A00E945700E980FA800B811C812D813E81D8
S11302B04F81588569857A858B850E947F002FE957
S11302C086E891E0215080409040E1F700C00000B2
S11302D0CE010C960E94D4009E84A92CB12C1A1431
S11302E01B0414F56E01EFE0CE0ED11C00E010E00B
S11302F00F2EFFE7EF2EF1E0FF2EF02DF601819196
S11303006F011F928F931F930F93FF92EF920E949E
S113031087020F5F1F4F0F900F900F900F900F9059
S11303200F900A151B0554F38D858F938C858F933D
S11303308DE891E09F938F930E9487021F929F9272
S113034085E991E09F938F930E9487020FB6F894FA
S1130350DEBF0FBECDBF66960FB6F894DEBF0FBEEC
S1130360CDBFDF91CF911F910F91FF90EF90DF9060
S1130370CF90BF90AF909F9008958FE190E00E943E
S11303802D020E942C0180E090E00895C49880EC36
S11303900E941C02C49A80E090E008950E94140216
S11303A00E94C60180E090E00895CF93C82FC498BE
S11303B083E00E941C028C2F0E941C020E942002D7
S11303C0C49ACF910895CF93DF93D82FC62FC498A2
S11303D082E00E941C028D2F0E941C028C2F0E941E
S11303E01C02C49ADF91CF910895C4980E941C0204
S11303F0C49A08951F93CF93DF93182FD62FC42F39
S1130400C49885E00E941C02812F0E941C028D2F3B
S11304100E941C028C2F0E941C0288B38F6E88BB22
S1130420DF91CF911F91089587B3806B87BBBE98EE
S11304308DB181658DB908958FB9779BFECF0895ED
S113044080E00E941C028FB108955D9BFECF8CB9A1
S113045008955F9BFECF8CB1089590BD89B988E162
S11304608AB969E272E085E292E00E943C029093CC
S1130470A3018093A20108950F931F93CF93DF9359
S1130480EC018B01009731F46115710519F480E0DA
S113049090E038C06EE070E081E090E00E946D046E
S11304A0FC010097A1F380E883830115110571F025
S11304B01387028781E883838091A4019091A50129
S11304C0892B21F4F093A501E093A4012097C9F0AE
S11304D0D187C0878381826083838091A6019091B4
S11304E0A701892B71F4F093A701E093A6018091F1
S11304F0A8019091A901892B21F4F093A901E0931B
S1130500A801CF01DF91CF911F910F910895A0E031
S1130510B0E0EDE8F2E00C946D06FE0135966191D1
S11305207191AF018091A6019091A7010E949B0255
S1130530E2E00C948906ACE0B0E0E1EAF2E00C946D
S11305405D067C016B018A01FC011782168283819E
S113055081FFBDC1CE0101964C01F7019381F601E3
S113056093FD859193FF81916F01882309F4ABC1B9
S1130570853239F493FD859193FF81916F01853222
S113058029F4B70190E00E94CD05E7CF512C312C1E
S113059020E02032A0F48B3269F030F4803259F03C
S11305A0833269F420612CC08D3239F0803339F400
S11305B0216026C02260246023C0286021C027FD5A
S11305C027C030ED380F3A3078F426FF06C0FAE041
S11305D05F9E300D1124532E13C08AE0389E300DD7
S11305E01124332E20620CC08E3221F426FD6BC1FF
S11305F0206406C08C3611F4206802C0883641F4A9
S1130600F60193FD859193FF81916F018111C1CF13
S1130610982F9F7D9554933028F40C5F1F4FFFE370
S1130620F9830DC0833631F0833771F0833509F0D7
S11306305BC022C0F801808189830E5F1F4F442470
S11306404394512C540115C03801F2E06F0E711C13
S1130650F801A080B18026FF03C0652D70E002C0C0
S11306606FEF7FEFC5012C870E94C2052C01830127
S11306702C852F77222E17C03801F2E06F0E711CE3
S1130680F801A080B18026FF03C0652D70E002C090
S11306906FEF7FEFC5012C870E94B0052C012C85DC
S11306A02068222E830123FC1BC0832D90E0481672
S11306B05906B0F4B70180E290E00E94CD053A9467
S11306C0F4CFF50127FC859127FE81915F01B701E5
S11306D090E00E94CD0531103A94F1E04F1A510890
S11306E04114510471F7E5C0843611F0893639F5A7
S11306F0F80127FF07C060817181828193810C5FBB
S11307001F4F08C060817181882777FD8095982FDD
S11307100E5F1F4F2F76B22E97FF09C090958095DC
S1130720709561957F4F8F4F9F4F2068B22E2AE0BE
S113073030E0A4010E94FF05A82EA81844C0853704
S113074029F42F7EB22E2AE030E025C0F22FF97F63
S1130750BF2E8F36C1F018F4883579F0B4C08037D5
S113076019F0883721F0AFC02F2F2061B22EB4FECC
S11307700DC08B2D8460B82E09C024FF0AC09F2FA2
S11307809660B92E06C028E030E005C020E130E0D4
S113079002C020E132E0F801B7FE07C06081718138
S11307A0828193810C5F1F4F06C06081718180E05C
S11307B090E00E5F1F4FA4010E94FF05A82EA81809
S11307C0FB2DFF77BF2EB6FE0BC02B2D2E7FA5145D
S11307D050F4B4FE0AC0B2FC08C02B2D2E7E05C016
S11307E07A2C2B2D03C07A2C01C0752C24FF0DC04C
S11307F0FE01EA0DF11D8081803311F4297E09C0C8
S113080022FF06C07394739404C0822F867809F083
S1130810739423FD13C020FF06C05A2C731418F4DC
S1130820530C5718732C731468F4B70180E290E0EA
S11308302C870E94CD0573942C85F5CF731410F486
S1130840371801C0312C24FF12C0B70180E390E0B7
S11308502C870E94CD052C8522FF17C021FF03C0E1
S113086088E590E002C088E790E0B7010CC0822FD1
S1130870867859F021FD02C080E201C08BE227FD99
S11308808DE2B70190E00E94CD05A51438F4B701BC
S113089080E390E00E94CD055A94F7CFAA94F40126
S11308A0EA0DF11D8081B70190E00E94CD05A110F1
S11308B0F5CF332009F451CEB70180E290E00E94D5
S11308C0CD053A94F6CFF7018681978102C08FEF68
S11308D09FEF2C96E2E10C9479060F931F93CF932C
S11308E0DF93869F8001879F100D969F100D112422
S11308F0C8010E948904EC01009729F0A80160E076
S113090070E00E94BB05CE01DF91CF911F910F9142
S11309100895CF93DF938230910510F482E090E044
S1130920E091AC01F091AD0120E030E0A0E0B0E056
S1130930309739F14081518148175907B8F0481769
S1130940590771F482819381109729F013969C932F
S11309508E9312972CC09093AD018093AC0127C065
S11309602115310531F04217530718F0A901DB01B5
S113097001C0EF019A01BD01DF010280F381E02D86
S1130980D7CF21153105F9F0281B390B2430310557
S113099080F48A819B816115710521F0FB019383A9
S11309A0828304C09093AD018093AC01FE01329622
S11309B044C0FE01E20FF31F819391932250310949
S11309C0398328833AC02091AA013091AB01232BAB
S11309D041F420910201309103013093AB01209343
S11309E0AA0120910001309101012115310541F442
S11309F02DB73EB74091040150910501241B350BDE
S1130A00E091AA01F091AB01E217F307A0F42E1BC9
S1130A103F0B2817390778F0AC014E5F5F4F24175E
S1130A20350748F04E0F5F1F5093AB014093AA0166
S1130A308193919302C0E0E0F0E0CF01DF91CF9188
S1130A400895CF93DF93009709F487C0FC01329790
S1130A5013821282C091AC01D091AD01209781F430
S1130A6020813181280F391F8091AA019091AB0117
S1130A708217930779F5F093AB01E093AA016DC057
S1130A80DE0120E030E0AE17BF0750F412964D911E
S1130A905C9113979D014115510509F1DA01F3CFDA
S1130AA0B383A28340815181840F951F8A179B07CA
S1130AB071F48D919C911197840F951F02969183E7
S1130AC0808312968D919C91139793838283211531
S1130AD0310529F4F093AD01E093AC013EC0D90196
S1130AE01396FC93EE9312974D915D91A40FB51F4D
S1130AF0EA17FB0779F480819181840F951F029690
S1130B00D90111969C938E938281938113969C9321
S1130B108E931297E0E0F0E08A819B81009719F0B0
S1130B20FE01EC01F9CFCE01029628813981820FB2
S1130B30931F2091AA013091AB012817390769F45A
S1130B40309729F41092AD011092AC0102C01382C7
S1130B501282D093AB01C093AA01DF91CF91089583
S1130B60FC010590615070400110D8F78095909574
S1130B708E0F9F1F0895DC0101C06D9341505040BA
S1130B80E0F70895FC016150704001900110D8F71E
S1130B90809590958E0F9F1F08950F931F93CF9369
S1130BA0DF93182F092FEB018B8181FD03C08FEF99
S1130BB09FEF20C082FF10C04E815F812C813D8158
S1130BC0421753077CF4E881F9819F012F5F3F4F5F
S1130BD039832883108306C0E885F985812F099518
S1130BE0892B29F72E813F812F5F3F4F3F832E832F
S1130BF0812F902FDF91CF911F910F910895FA01CA
S1130C00AA27283051F1203181F1E8946F936E7F47
S1130C106E5F7F4F8F4F9F4FAF4FB1E03ED0B4E038
S1130C203CD0670F781F891F9A1FA11D680F791F79
S1130C308A1F911DA11D6A0F711D811D911DA11D8A
S1130C4020D009F468943F912AE0269F112430199A
S1130C50305D3193DEF6CF010895462F4770405D35
S1130C604193B3E00FD0C9F7F6CF462F4F70405DE4
S1130C704A3318F0495D31FD4052419302D0A9F73F
S1130C80EACFB4E0A6959795879577956795BA9539
S1130C90C9F700976105710508959B01AC010A2EFF
S1130CA006945795479537952795BA95C9F7620FD6
S1130CB0731F841F951FA01D08952F923F924F927A
S1130CC05F926F927F928F929F92AF92BF92CF92D8
S1130CD0DF92EF92FF920F931F93CF93DF93CDB7E1
S1130CE0DEB7CA1BDB0B0FB6F894DEBF0FBECDBF59
S1130CF009942A88398848885F846E847D848C842A
S1130D009B84AA84B984C884DF80EE80FD800C8132
S1130D101B81AA81B981CE0FD11D0FB6F894DEBF15
S10F0D200FBECDBFED010895F894FFCF85
S1130D2C0000AE0120004A6F79737469636B3A203A
S1130D3C25640A004C65667420627574746F6E3A8F
S1130D4C20256420526967687420627574746F6E10
S1130D5C3A2025640A0054657374696E6720414413
S1130D6C433A0025642025642025642025640A0068
S1130D7C25692C2025692C2025640A004E455554E0
S1130D8C52414C00555000444F574E00524947486D
S1130D9C54004C454654000A0A002563250A000AEF
S1130DAC444154415B25645D3A202564000A49445E
S1130DBC3A202564000A6C656E6774683A202564D1
S1050DCC0A0017
S9030000FC
