S014000050696E67506F6E6747616D652E7372656374
S11300000C9426010C9443010C9443010C94430179
S11300100C9443010C9443010C9443010C9443014C
S11300200C9443010C9443010C9443010C9443013C
S11300300C9443010C9443010C9443010C9443012C
S11300400C9443010C9443010C9443010C9443011C
S11300500C9443010C9443010C9443010C9443010C
S11300600C9443010C9443010C9443010C944301FC
S1130070000000000000005F0000000700070014FB
S11300807F147F14242A7F2A1223130864623649BA
S11300905522500005030000001C224100004122AB
S11300A01C00082A1C2A0808083E080800503000D2
S11300B00008080808080060600000201008040216
S11300C03E5149453E00427F40004261514946212C
S11300D041454B311814127F1027454545393C4A98
S11300E049493001710905033649494936064949E8
S11300F0291E00363600000056360000000814227F
S11301004114141414144122140800020151090664
S1130110324979413E7E1111117E7F494949363E6B
S1130120414141227F4141221C7F494949417F0984
S11301300901013E414151327F0808087F00417F97
S113014041002040413F017F081422417F4040404C
S1130150407F0204027F7F0408107F3E4141413EFC
S11301607F090909063E4151215E7F091929464646
S11301704949493101017F01013F4040403F1F206F
S113018040201F7F2018207F631408146303047821
S11301900403615149454300007F414102040810B2
S11301A02041417F000004020102044040404040DD
S11301B0000102040020545454787F4844443838E1
S11301C044444420384444487F3854545418087EE6
S11301D0090102081454543C7F0804047800447D47
S11301E040002040443D00007F10284400417F40EF
S11301F0007C041804787C080404783844444438A7
S11302007C14141408081414187C7C08040408488A
S113021054545420043F4440203C4040207C1C2043
S113022040201C3C4030403C44281028440C505092
S1130230503C4464544C44000836410000007F00A4
S113024000004136080002010302010011241FBE10
S1130250CFEFD4E0DEBFCDBF12E0A0E0B1E0ECE729
S1130260F0E102C005900D92AC33B107D9F722E05A
S1130270ACE3B2E001C01D92A834B207E1F70E94DA
S113028068030C943C080C9400008093001486EAE4
S11302908A95F1F700C0809100140895CF93DF93FD
S11302A0CDB7DEB7CA5AD1090FB6F894DEBF0FBE78
S11302B0CDBF0E94BA030E9471030E94920384E698
S11302C0E2E2F1E0DE01119601900D928A95E1F7E8
S11302D08CE3E6E8F1E0DE01AB59BF4F01900D92EB
S11302E08A95E1F7612C712C22242394312CC95571
S11302F0DF4F1882C75AD040C855DF4F1882C85AFA
S1130300D04020E0CB55DF4F2883C55AD04030E0A1
S1130310CA55DF4F3883C65AD040CF55DF4F2883A4
S1130320C15AD040CE55DF4F3883C25AD040D0C0D6
S113033080E090E00E94840380E090E00E948E03BD
S113034085E090E00E944501182F84E090E00E942F
S11303504501282F30E02A37310540F442E02416C5
S113036031040CF0A6C15FEF251A350A2338310594
S113037038F082E0281631041CF091E0291A310883
S11303801C3308F4ADC02CEEA1012403C001259F49
S1130390900D1124CD55DF4F99838883C35AD040E3
S11303A0412C512C812C912CA4E1A29DC001A39D30
S11303B0900D1124E5E6F0E0EC0FFD1FE80FF91FA6
S11303C0C755DF4FF983E883C95AD04067C0281462
S11303D03904D1F4C8018E0D9F1D0E948403D501F8
S11303E08C9190E080979C01220F331F220F331FC2
S11303F0820F931FFC01E00FF11FE059FF4F84911E
S113040080950E946E0318C0C8018E0D9F1D0E9426
S11304108403F601808190E080979C01220F331FB2
S1130420220F331F820F931FFC01E00FF11FE059CD
S1130430FF4F84910E946E030F5F1F4F053011051B
S113044009F0C5CFF5E0EF0EF11C2FEFA21AB20AA6
S113045037E3E316F104A9F0CD55DF4FC880D98006
S1130460C35AD040CA0CDB1CC40CD51CCB55DF4F7F
S11304700881C55AD040CA55DF4F1881C65AD040AA
S1130480A6CF4FEF841A940AC4010E948E0354E14C
S1130490450E511C83E08816910489F0C755DF4F3F
S11304A0A880B980C95AD040C955DF4FE880C75ADF
S11304B0D040C855DF4FF880C85AD040CDCF9FE315
S11304C0ADE0B3E09150A040B040E1F700C00000BF
S11304D0E1E06E16710409F42BCF61147104C1F7C5
S11304E0C955DF4F8881C75AD040C855DF4F98811E
S11304F0C85AD0400E948403C955DF4F8881C75A27
S1130500D040C855DF4F9881C85AD0400E948E030E
S113051085E090E00E944501182F84E090E00E945D
S11305204501282F30E02A37310538F4F4E02F163E
S113053031041CF44FEF241A340A2338310538F0FF
S113054052E0251631041CF081E0281A31083F924C
S11305502F92A4E1B2E0BF93AF930E942F040F90B7
S11305600F900F900F90133820F0F2E02F16310403
S113057031F14CEE910142032001439F500C1124B0
S1130580C955DF4F6880C75AD040C855DF4F7880BF
S1130590C85AD040A62CB72C54E1529DC001539D9B
S11305A0900D1124A1E0B0E0AC0FBD1FA80FB91F3E
S11305B0CD55DF4FB983A883C35AD04069C00E9488
S11305C0920366246394712C22242394312C80CFCB
S11305D02A143B04D1F4C701800F911F0E948403A5
S11305E0F401808190E080979C01220F331F220F39
S11305F0331F820F931FFC01E00FF11FE059FF4FDF
S1130600849180950E946E0317C0C8018E0D9F1DB2
S11306100E948403D6018C9190E08097FC01EE0F38
S1130620FF1FEE0FFF1FE80FF91FE00FF11FE05946
S1130630FF4F84910E946E030F5F1F4F0530110519
S113064039F6B5E0EB0EF11CEFEF8E1A9E0AF1E4D9
S1130650EF16F10481F06401C40CD51CC60CD71C40
S1130660CF55DF4F0881C15AD040CE55DF4F188196
S1130670C25AD040ADCF2FEFA21AB20AC5010E94D0
S11306808E0334E1630E711C45E0A416B104B1F08D
S1130690CD55DF4F88809980C35AD040CB55DF4F6A
S11306A0E880C55AD040CA55DF4FF880C65AD040BA
S11306B0D2CF2338310508F060CE62CE5FE986E8F8
S11306C091E0515080409040E1F700C0000008CF15
S11306D08FE190E00E94D5030E944E0180930012A6
S11306E0089585B7806885BF80B7806280BF80B772
S11306F08F7E80BF80B7877F80BF85B7826085BFCC
S113070086B78F7B86BF0895982F9F70E0E0F0E155
S1130710908382958F70805F808308958055809345
S113072000100895AF92BF92DF92EF921F93CF9380
S1130730DF930F2EF0EBEF2EF02DA12C6894BB2449
S1130740B4F8D12CC0E0D2E1F501E0821D2D812F57
S11307500E94840318821F5F1038C9F7E394F8EBF2
S1130760EF12F2CFDF91CF911F91EF90DF90BF9006
S1130770AF90089585B7806885BF80B7806280BFD9
S113078080B78F7E80BF80B7877F80BF85B7826048
S113079085BF86B78F7B86BF08955D9BFECF8CB9DE
S11307A008955F9BFECF8CB1089590BD89B988E10F
S11307B08AB961ED73E08DEC93E00E94E4039093B9
S11307C03D0280933C0208950F931F93CF93DF93D0
S11307D0EC018B01009731F46115710519F480E087
S11307E090E038C06EE070E081E090E00E94150671
S11307F0FC010097A1F380E883830115110571F0D2
S11308001387028781E8838380913E0290913F029F
S1130810892B21F4F0933F02E0933E022097C9F024
S1130820D187C087838182608383809140029091C5
S11308304102892B71F4F0934102E09340028091CC
S1130840420290914302892B21F4F0934302E093F6
S11308504202CF01DF91CF911F910F910895A0E043
S1130860B0E0E5E3F4E00C941508FE0135966191DF
S11308707191AF0180914002909141020E94430422
S1130880E2E00C943108ACE0B0E0E9E4F4E00C946C
S113089005087C016B018A01FC01178216828381A1
S11308A081FFBDC1CE0101964C01F7019381F60190
S11308B093FD859193FF81916F01882309F4ABC166
S11308C0853239F493FD859193FF81916F018532CF
S11308D029F4B70190E00E947507E7CF512C312C21
S11308E020E02032A0F48B3269F030F4803259F0E9
S11308F0833269F420612CC08D3239F0803339F4AD
S1130900216026C02260246023C0286021C027FD06
S113091027C030ED380F3A3078F426FF06C0FAE0ED
S11309205F9E300D1124532E13C08AE0389E300D83
S11309301124332E20620CC08E3221F426FD6BC1AB
S1130940206406C08C3611F4206802C0883641F455
S1130950F60193FD859193FF81916F018111C1CFC0
S1130960982F9F7D9554933028F40C5F1F4FFFE31D
S1130970F9830DC0833631F0833771F0833509F084
S11309805BC022C0F801808189830E5F1F4F44241D
S11309904394512C540115C03801F2E06F0E711CC0
S11309A0F801A080B18026FF03C0652D70E002C06D
S11309B06FEF7FEFC5012C870E946A072C0183012A
S11309C02C852F77222E17C03801F2E06F0E711C90
S11309D0F801A080B18026FF03C0652D70E002C03D
S11309E06FEF7FEFC5012C870E9458072C012C85DF
S11309F02068222E830123FC1BC0832D90E048161F
S1130A005906B0F4B70180E290E00E9475073A9469
S1130A10F4CFF50127FC859127FE81915F01B70191
S1130A2090E00E94750731103A94F1E04F1A510892
S1130A304114510471F7E5C0843611F0893639F553
S1130A40F80127FF07C060817181828193810C5F67
S1130A501F4F08C060817181882777FD8095982F8A
S1130A600E5F1F4F2F76B22E97FF09C09095809589
S1130A70709561957F4F8F4F9F4F2068B22E2AE06B
S1130A8030E0A4010E94A707A82EA81844C0853707
S1130A9029F42F7EB22E2AE030E025C0F22FF97F10
S1130AA0BF2E8F36C1F018F4883579F0B4C0803782
S1130AB019F0883721F0AFC02F2F2061B22EB4FE79
S1130AC00DC08B2D8460B82E09C024FF0AC09F2F4F
S1130AD09660B92E06C028E030E005C020E130E081
S1130AE002C020E132E0F801B7FE07C060817181E5
S1130AF0828193810C5F1F4F06C06081718180E009
S1130B0090E00E5F1F4FA4010E94A707A82EA8180B
S1130B10FB2DFF77BF2EB6FE0BC02B2D2E7FA51409
S1130B2050F4B4FE0AC0B2FC08C02B2D2E7E05C0C2
S1130B307A2C2B2D03C07A2C01C0752C24FF0DC0F8
S1130B40FE01EA0DF11D8081803311F4297E09C074
S1130B5022FF06C07394739404C0822F867809F030
S1130B60739423FD13C020FF06C05A2C731418F489
S1130B70530C5718732C731468F4B70180E290E097
S1130B802C870E94750773942C85F5CF731410F489
S1130B90371801C0312C24FF12C0B70180E390E064
S1130BA02C870E9475072C8522FF17C021FF03C0E4
S1130BB088E590E002C088E790E0B7010CC0822F7E
S1130BC0867859F021FD02C080E201C08BE227FD46
S1130BD08DE2B70190E00E947507A51438F4B701BF
S1130BE080E390E00E9475075A94F7CFAA94F40129
S1130BF0EA0DF11D8081B70190E00E947507A110F4
S1130C00F5CF332009F451CEB70180E290E00E9481
S1130C1075073A94F6CFF7018681978102C08FEF6A
S1130C209FEF2C96E2E10C9421080F931F93CF932E
S1130C30DF93869F8001879F100D969F100D1124CE
S1130C40C8010E943106EC01009729F0A80160E078
S1130C5070E00E946307CE01DF91CF911F910F9145
S1130C600895CF93DF938230910510F482E090E0F1
S1130C70E0914602F091470220E030E0A0E0B0E0CD
S1130C80309739F14081518148175907B8F0481716
S1130C90590771F482819381109729F013969C93DC
S1130CA08E9312972CC0909347028093460227C0DC
S1130CB02115310531F04217530718F0A901DB0162
S1130CC001C0EF019A01BD01DF010280F381E02D33
S1130CD0D7CF21153105F9F0281B390B2430310504
S1130CE080F48A819B816115710521F0FB01938356
S1130CF0828304C09093470280934602FE01329699
S1130D0044C0FE01E20FF31F8193919322503109F5
S1130D10398328833AC02091440230914502232B21
S1130D2041F4209102013091030130934502209354
S1130D30440220910001309101012115310541F453
S1130D402DB73EB74091040150910501241B350B8A
S1130D50E0914402F0914502E217F307A0F42E1B40
S1130D603F0B2817390778F0AC014E5F5F4F24170B
S1130D70350748F04E0F5F1F5093450240934402DD
S1130D808193919302C0E0E0F0E0CF01DF91CF9135
S1130D900895CF93DF93009709F487C0FC0132973D
S1130DA013821282C0914602D0914702209781F4A7
S1130DB020813181280F391F80914402909145028E
S1130DC08217930779F5F0934502E09344026DC0CE
S1130DD0DE0120E030E0AE17BF0750F412964D91CB
S1130DE05C9113979D014115510509F1DA01F3CF87
S1130DF0B383A28340815181840F951F8A179B0777
S1130E0071F48D919C911197840F951F0296918393
S1130E10808312968D919C911397938382832115DD
S1130E20310529F4F0934702E09346023EC0D9010C
S1130E301396FC93EE9312974D915D91A40FB51FF9
S1130E40EA17FB0779F480819181840F951F02963C
S1130E50D90111969C938E938281938113969C93CE
S1130E608E931297E0E0F0E08A819B81009719F05D
S1130E70FE01EC01F9CFCE01029628813981820F5F
S1130E80931F20914402309145022817390769F4D1
S1130E90309729F4109247021092460202C013823E
S1130EA01282D0934502C0934402DF91CF910895FA
S1130EB0FC010590615070400110D8F78095909521
S1130EC08E0F9F1F0895DC0101C06D934150504067
S1130ED0E0F70895FC016150704001900110D8F7CB
S1130EE0809590958E0F9F1F08950F931F93CF9316
S1130EF0DF93182F092FEB018B8181FD03C08FEF46
S1130F009FEF20C082FF10C04E815F812C813D8104
S1130F10421753077CF4E881F9819F012F5F3F4F0B
S1130F2039832883108306C0E885F985812F0995C4
S1130F30892B29F72E813F812F5F3F4F3F832E83DB
S1130F40812F902FDF91CF911F910F910895FA0176
S1130F50AA27283051F1203181F1E8946F936E7FF4
S1130F606E5F7F4F8F4F9F4FAF4FB1E03ED0B4E0E5
S1130F703CD0670F781F891F9A1FA11D680F791F26
S1130F808A1F911DA11D6A0F711D811D911DA11D37
S1130F9020D009F468943F912AE0269F1124301947
S1130FA0305D3193DEF6CF010895462F4770405DE2
S1130FB04193B3E00FD0C9F7F6CF462F4F70405D91
S1130FC04A3318F0495D31FD4052419302D0A9F7EC
S1130FD0EACFB4E0A6959795879577956795BA95E6
S1130FE0C9F700976105710508959B01AC010A2EAC
S1130FF006945795479537952795BA95C9F7620F83
S1131000731F841F951FA01D08952F923F924F9226
S11310105F926F927F928F929F92AF92BF92CF9284
S1131020DF92EF92FF920F931F93CF93DF93CDB78D
S1131030DEB7CA1BDB0B0FB6F894DEBF0FBECDBF05
S113104009942A88398848885F846E847D848C84D6
S11310509B84AA84B984C884DF80EE80FD800C81DF
S11310601B81AA81B981CE0FD11D0FB6F894DEBFC2
S10F10700FBECDBFED010895F894FFCF32
S113107C0000480220004E61612065722064657492
S113108C20736E617274206A756C2069616172726E
S113109C73002D2D484F5645444D454E592D2D006A
S11310AC00000000000020486A656D2020202020EC
S11310BC2020200000000000000020466F746261B4
S11310CC6C6C202020202000000000000000204731
S11310DC6F6C6620202020202020200000000000BF
S11310EC000020416E6E65742020202020202000FA
S11310FC0000000000002D2D464F5442414C4C2D55
S113110C2D00000000000000000020417273656E89
S113111C616C202020000000000000000000204D25
S113112C616E2E5574642E20200000000000000017
S113113C00004A6F79737469636B3A2025640A0062
S113114C4C65667420627574746F6E3A2025642045
S113115C526967687420627574746F6E3A202564E2
S113116C0A0054657374696E67204144433A002540
S113117C642025642025642025640A0025692C201C
S113118C25692C2025640A004E45555452414C00C7
S113119C555000444F574E005249474854004C4553
S10F11AC4654000A0A002563250A0000CE
S9030000FC
