S014000050696E67506F6E6747616D652E7372656374
S11300000C9438000C9455000C9455000C94550035
S11300100C9455000C9455000C9455000C94550008
S11300200C9455000C9455000C9455000C945500F8
S11300300C9455000C9455000C9455000C945500E8
S11300400C9455000C9455000C9455000C945500D8
S11300500C9455000C9455000C9455000C945500C8
S11300600C9455000C9455000C9455000C945500B8
S113007011241FBECFEFD4E0DEBFCDBF11E0A0E05E
S1130080B1E0E0E2FCE002C005900D92AC31B107B2
S1130090D9F721E0ACE1B1E001C01D92A832B2076A
S11300A0E1F70E9436010C940E060C940000809334
S11300B0001486E692E00197F1F7000080910014A5
S11300C008950E94400160E88FE00E944F0163E0C0
S11300D08BE20E944F0160E08CE20E944F0160E0DD
S11300E08DE20E944F0160E08CE00E944F0160E0CD
S11300F08DE00E944F0160E680E60E944F0160E6B9
S113010080E70E944F0140E060EE8FE00E946601AC
S11301100895CF92DF92EF92FF920F931F93CF93A4
S1130120DF93CDB7DEB72B970FB6F894DEBF0FBEC3
S1130130CDBFE982FA820B831C832D833E834F83D8
S1130140588769877A878B87FF92EF9286E091E0E0
S11301509F938F930E9401026E2D81E30E944F01B1
S11301606E2D81E30E944F01602F85E30E944F01B1
S1130170C02ED12C0F900F900F900F901C141D04C3
S113018094F47E0184E0E80EF11C00E010E0F70135
S113019061917F0186E3800F0E944F010F5F1F4F23
S11301A00C151D05A4F381E80E9461012B960FB67E
S11301B0F894DEBF0FBECDBFDF91CF911F910F9199
S11301C0FF90EF90DF90CF900895CF93DF93CDB75A
S11301D0DEB72B970FB6F894DEBF0FBECDBF0E94DB
S11301E080010E9448010E94610087B3887F87BB19
S11301F00F2EF0E7AF2EF02D712C0F2EF7E0BF2E4F
S1130200F02D8824839485E090E00E945700182FF5
S113021084E090E00E945700C82E87E090E00E949E
S11302205700D82E86E090E00E94570046B356B39C
S113023096B292FA992490F8EA2CA9827A82BB8227
S11302401C83CD82302F38253E8341704F835695D1
S1130250517058878987DA86F72C0B2D2C2D682F3F
S11302607D2D8B850E948900092DCDCF8FE190E0F3
S11302700E94A7010E9448010E9461000E94E500BB
S1130280C49880EC0E949B01C49A80E090E0089599
S11302900E9493010E94400180E090E00895CF9372
S11302A0DF93D82FC62FC49882E00E949B018D2F24
S11302B00E949B018C2F0E949B01C49ADF91CF91D5
S11302C00895C4980E949B01C49A08951F93CF93E4
S11302D0DF93182FD62FC42FC49885E00E949B016A
S11302E0812F0E949B018D2F0E949B018C2F0E94C5
S11302F09B0188B38F6E88BBDF91CF911F910895C6
S113030085B7806885BF80B7806280BF80B78F7EE5
S113031080BF80B7877F80BF85B7826085BF86B77F
S11303208F7B86BF089587B3806B87BBBE988DB1E2
S113033081658DB908958FB9779BFECF08955D9B34
S1130340FECF8CB908955F9BFECF8CB1089590BD0C
S113035089B988E18AB963EA71E08FE991E00E9482
S1130360B60190931D0180931C0108950F931F9370
S1130370CF93DF93EC018B01009731F46115710584
S113038019F480E090E038C06EE070E081E090E025
S11303900E94E703FC010097A1F380E88383011521
S11303A0110571F01387028781E8838380911E0110
S11303B090911F01892B21F4F0931F01E0931E01FA
S11303C02097C9F0D187C08783818260838380911D
S11303D0200190912101892B71F4F0932101E09384
S11303E020018091220190912301892B21F4F09323
S11303F02301E0932201CF01DF91CF911F910F914F
S11304000895A0E0B0E0E7E0F2E00C94E705FE0117
S1130410359661917191AF018091200190912101F4
S11304200E941502E2E00C940306ACE0B0E0EBE1BC
S1130430F2E00C94D7057C016B018A01FC01178260
S11304401682838181FFBDC1CE0101964C01F70163
S11304509381F60193FD859193FF81916F01882328
S113046009F4ABC1853239F493FD859193FF8191F1
S11304706F01853229F4B70190E00E944705E7CF68
S1130480512C312C20E02032A0F48B3269F030F46E
S1130490803259F0833269F420612CC08D3239F0F6
S11304A0803339F4216026C02260246023C0286090
S11304B021C027FD27C030ED380F3A3078F426FFED
S11304C006C0FAE05F9E300D1124532E13C08AE05B
S11304D0389E300D1124332E20620CC08E3221F44C
S11304E026FD6BC1206406C08C3611F4206802C05E
S11304F0883641F4F60193FD859193FF81916F0154
S11305008111C1CF982F9F7D9554933028F40C5FAF
S11305101F4FFFE3F9830DC0833631F0833771F049
S1130520833509F05BC022C0F801808189830E5FA6
S11305301F4F44244394512C540115C03801F2E058
S11305406F0E711CF801A080B18026FF03C0652DD9
S113055070E002C06FEF7FEFC5012C870E943C055D
S11305602C0183012C852F77222E17C03801F2E04D
S11305706F0E711CF801A080B18026FF03C0652DA9
S113058070E002C06FEF7FEFC5012C870E942A053F
S11305902C012C852068222E830123FC1BC0832D73
S11305A090E048165906B0F4B70180E290E00E944A
S11305B047053A94F4CFF50127FC859127FE8191F4
S11305C05F01B70190E00E94470531103A94F1E0D1
S11305D04F1A51084114510471F7E5C0843611F0E3
S11305E0893639F5F80127FF07C06081718182815E
S11305F093810C5F1F4F08C060817181882777FD4C
S11306008095982F0E5F1F4F2F76B22E97FF09C04B
S113061090958095709561957F4F8F4F9F4F20687F
S1130620B22E2AE030E0A4010E947905A82EA81871
S113063044C0853729F42F7EB22E2AE030E025C04D
S1130640F22FF97FBF2E8F36C1F018F4883579F078
S1130650B4C0803719F0883721F0AFC02F2F206144
S1130660B22EB4FE0DC08B2D8460B82E09C024FFB9
S11306700AC09F2F9660B92E06C028E030E005C05E
S113068020E130E002C020E132E0F801B7FE07C00B
S113069060817181828193810C5F1F4F06C06081EC
S11306A0718180E090E00E5F1F4FA4010E947905E4
S11306B0A82EA818FB2DFF77BF2EB6FE0BC02B2D3E
S11306C02E7FA51450F4B4FE0AC0B2FC08C02B2D32
S11306D02E7E05C07A2C2B2D03C07A2C01C0752CDC
S11306E024FF0DC0FE01EA0DF11D8081803311F459
S11306F0297E09C022FF06C07394739404C0822F1C
S1130700867809F0739423FD13C020FF06C05A2C89
S1130710731418F4530C5718732C731468F4B7013A
S113072080E290E02C870E94470573942C85F5CFD6
S1130730731410F4371801C0312C24FF12C0B70110
S113074080E390E02C870E9447052C8522FF17C088
S113075021FF03C088E590E002C088E790E0B7017C
S11307600CC0822F867859F021FD02C080E201C0BE
S11307708BE227FD8DE2B70190E00E944705A514A6
S113078038F4B70180E390E00E9447055A94F7CF0C
S1130790AA94F401EA0DF11D8081B70190E00E9452
S11307A04705A110F5CF332009F451CEB70180E2FB
S11307B090E00E9447053A94F6CFF701868197812D
S11307C002C08FEF9FEF2C96E2E10C94F3050F9398
S11307D01F93CF93DF93869F8001879F100D969F71
S11307E0100D1124C8010E940304EC01009729F0A4
S11307F0A80160E070E00E943505CE01DF91CF9141
S11308001F910F910895CF93DF938230910510F4D7
S113081082E090E0E0912601F091270120E030E0B1
S1130820A0E0B0E0309739F1408151814817590771
S1130830B8F04817590771F482819381109729F011
S113084013969C938E9312972CC0909327018093B8
S1130850260127C02115310531F04217530718F03E
S1130860A901DB0101C0EF019A01BD01DF01028092
S1130870F381E02DD7CF21153105F9F0281B390B71
S11308802430310580F48A819B816115710521F042
S1130890FB019383828304C09093270180932601F4
S11308A0FE01329644C0FE01E20FF31F819391933F
S11308B022503109398328833AC020912401309190
S11308C02501232B41F4209102013091030130933F
S11308D0250120932401209100013091010121156B
S11308E0310541F42DB73EB7409104015091050103
S11308F0241B350BE0912401F0912501E217F30745
S1130900A0F42E1B3F0B2817390778F0AC014E5F7B
S11309105F4F2417350748F04E0F5F1F5093250192
S1130920409324018193919302C0E0E0F0E0CF0171
S1130930DF91CF910895CF93DF93009709F487C097
S1130940FC01329713821282C0912601D0912701B3
S1130950209781F420813181280F391F809124014F
S1130960909125018217930779F5F0932501E0937F
S113097024016DC0DE0120E030E0AE17BF0750F463
S113098012964D915C9113979D014115510509F102
S1130990DA01F3CFB383A28340815181840F951F81
S11309A08A179B0771F48D919C911197840F951F61
S11309B002969183808312968D919C9113979383D1
S11309C082832115310529F4F0932701E093260150
S11309D03EC0D9011396FC93EE9312974D915D910D
S11309E0A40FB51FEA17FB0779F480819181840F66
S11309F0951F0296D90111969C938E9382819381BF
S1130A0013969C938E931297E0E0F0E08A819B8189
S1130A10009719F0FE01EC01F9CFCE01029628816E
S1130A203981820F931F20912401309125012817C9
S1130A30390769F4309729F410922701109226019E
S1130A4002C013821282D0932501C0932401DF9146
S1130A50CF910895FC010590615070400110D8F7C2
S1130A60809590958E0F9F1F0895DC0101C06D93B2
S1130A7041505040E0F70895FC01615070400190EE
S1130A800110D8F7809590958E0F9F1F08950F93AE
S1130A901F93CF93DF93182F092FEB018B8181FDD7
S1130AA003C08FEF9FEF20C082FF10C04E815F8193
S1130AB02C813D81421753077CF4E881F9819F0121
S1130AC02F5F3F4F39832883108306C0E885F9855B
S1130AD0812F0995892B29F72E813F812F5F3F4F65
S1130AE03F832E83812F902FDF91CF911F910F9100
S1130AF00895FA01AA27283051F1203181F1E894B0
S1130B006F936E7F6E5F7F4F8F4F9F4FAF4FB1E0FC
S1130B103ED0B4E03CD0670F781F891F9A1FA11DF7
S1130B20680F791F8A1F911DA11D6A0F711D811DF8
S1130B30911DA11D20D009F468943F912AE0269FBD
S1130B4011243019305D3193DEF6CF010895462F1C
S1130B504770405D4193B3E00FD0C9F7F6CF462FFD
S1130B604F70405D4A3318F0495D31FD4052419366
S1130B7002D0A9F7EACFB4E0A69597958795779523
S1130B806795BA95C9F700976105710508959B01AA
S1130B90AC010A2E06945795479537952795BA9533
S1130BA0C9F7620F731F841F951FA01D08952F920C
S1130BB03F924F925F926F927F928F929F92AF92E9
S1130BC0BF92CF92DF92EF92FF920F931F93CF9336
S1130BD0DF93CDB7DEB7CA1BDB0B0FB6F894DEBFCD
S1130BE00FBECDBF09942A88398848885F846E84F3
S1130BF07D848C849B84AA84B984C884DF80EE803D
S1130C00FD800C811B81AA81B981CE0FD11D0FB645
S1130C10F894DEBF0FBECDBFED010895F894FFCF69
S1130C200000280120000A43616E204944207365B6
S10F0C306E743A2025303278200A00004F
S9030000FC
