S014000050696E67506F6E6747616D652E7372656374
S11300000C9426010C9443010C9443010C94430179
S11300100C9443010C9443010C9443010C9443014C
S11300200C9443010C9443010C9443010C9443013C
S11300300C9443010C9443010C9443010C9443012C
S11300400C9443010C9443010C9443010C9443011C
S11300500C9443010C9443010C9443010C9443010C
S11300600C9443010C9443010C9443010C944301FC
S1130070000000000000005F0000000700070014FB
S11300807F147F14242A7F2A1223130864623649BA
S11300905522500005030000001C224100004122AB
S11300A01C00082A1C2A0808083E080800503000D2
S11300B00008080808080060600000201008040216
S11300C03E5149453E00427F40004261514946212C
S11300D041454B311814127F1027454545393C4A98
S11300E049493001710905033649494936064949E8
S11300F0291E00363600000056360000000814227F
S11301004114141414144122140800020151090664
S1130110324979413E7E1111117E7F494949363E6B
S1130120414141227F4141221C7F494949417F0984
S11301300901013E414151327F0808087F00417F97
S113014041002040413F017F081422417F4040404C
S1130150407F0204027F7F0408107F3E4141413EFC
S11301607F090909063E4151215E7F091929464646
S11301704949493101017F01013F4040403F1F206F
S113018040201F7F2018207F631408146303047821
S11301900403615149454300007F414102040810B2
S11301A02041417F000004020102044040404040DD
S11301B0000102040020545454787F4844443838E1
S11301C044444420384444487F3854545418087EE6
S11301D0090102081454543C7F0804047800447D47
S11301E040002040443D00007F10284400417F40EF
S11301F0007C041804787C080404783844444438A7
S11302007C14141408081414187C7C08040408488A
S113021054545420043F4440203C4040207C1C2043
S113022040201C3C4030403C44281028440C505092
S1130230503C4464544C44000836410000007F00A4
S113024000004136080002010302010011241FBE10
S1130250CFEFD4E0DEBFCDBF14E0A0E0B1E0E6E133
S1130260F5E102C005900D92AC3CB107D9F724E04A
S1130270ACECB4E001C01D92A83DB207E1F70E94C6
S113028050050C94890A0C9400008093001486E6AF
S113029092E00197F1F700008091001408950E9404
S11302A0600582E58A95F1F760E88FE00E946F05AA
S11302B063E08BE20E946F0560E08CE20E946F05B0
S11302C060E08DE20E946F0560E08CE00E946F05A3
S11302D060E08DE00E946F0560E680E60E946F0595
S11302E060E680E70E946F0560E08FE00E946F0582
S11302F00895CF93DF93CDB7DEB7C651D1400FB683
S1130300F894DEBF0FBECDBF80E5E6E9F2E0DE0182
S1130310119601900D928A95E1F784E6E6EEF2E0FB
S1130320DE01AF5ABF4F01900D928A95E1F788E53F
S1130330EAE4F3E0DE01AB54BF4F01900D928A95DD
S1130340E1F7CB5EDE4F19821882C551D14081E0BE
S113035090E0CD5EDE4F1882C351D140CC5EDE4FBB
S11303601882C451D14020E0CF5EDE4F2883C151B2
S1130370D14030E0CE5EDE4F3883C251D140312CC3
S1130380212C05C081E090E002C081E090E0813042
S1130390910529F544244394512C85E090E00E9472
S11303A04501182F84E090E00E944501282F30E099
S11303B02D37310538F444E0441651041CF48FEF12
S11303C0481A580A2338310508F43BC392E0491609
S11303D051040CF436C3A1E04A1A510832C38230E6
S11303E0910509F4BFC00EC10E94D305CD5EDE4F56
S11303F08881C351D140CC5EDE4F9881C451D14035
S11304000E94C505CD5EDE4F8881C351D140CC5ECC
S1130410DE4F9881C451D1400E94CF054CEE920129
S11304204203C001439F900D1124C35FDE4F9983A3
S11304308883CD50D140CD5EDE4F6880C351D1401A
S1130440CC5EDE4F7880C451D140A62CB72CA4E1F9
S1130450A49DC001A59D900D1124E1E0F0E0EC0FF6
S1130460FD1FE80FF91FC15FDE4FF983E883CF500A
S1130470D1405DC04A145B04D1F4C701800F911FC1
S11304800E94C505D4018C9190E080979C01220FB5
S1130490331F220F331F820F931FFC01E00FF11F44
S11304A0E059FF4F849180950E94810517C0C801CF
S11304B08E0D9F1D0E94C505F601808190E08097F6
S11304C0FC01EE0FFF1FEE0FFF1FE80FF91FE00FF7
S11304D0F11FE059FF4F84910E9481050F5F1F4F68
S11304E00530110539F6F5E0EF0EF11C2FEF821AF5
S11304F0920A31E4E316F10469F0C35FDE4FC88069
S1130500D980CD50D140C80CD91CC60CD71C032DA2
S1130510122DB0CF4FEFA41AB40AC5010E94CF0523
S113052084E1680E711C94E0A916B10489F0C15FDE
S1130530DE4F88809980CF50D140CF5EDE4FE88077
S1130540C151D140CE5EDE4FF880C251D140D5CFEB
S1130550AFEFBFE7E7E0A150B040E040E1F700C0F3
S113056000001BCF44244394512C85E090E00E946A
S11305704501082F10E084E090E00E94450190E0DE
S11305808D37910538F4F5E04F1651041CF42FEF24
S1130590421A520A8838910538F032E04316510461
S11305A01CF041E0441A51080C33110508F459C2F7
S11305B00739110560F181E04816510449F092E0D1
S11305C049165104A1F0A3E04A16510459F44CC24F
S11305D0CB5EDE4F1882C551D140CA5EDE4F188211
S11305E0C651D140B4E04B16510449F448C2E1E08D
S11305F0F0E0CB5EDE4FF983E883C551D14084E05F
S113060090E0F1C08330910509F4BFC0ECC00E94B2
S1130610D305CD5EDE4F8881C351D140CC5EDE4F21
S11306209881C451D1400E94C505CD5EDE4F8881BA
S1130630C351D140CC5EDE4F9881C451D1400E9459
S1130640CF054CEE92014203C001439F900D11244B
S1130650C35FDE4F99838883CD50D140CD5EDE4F9A
S11306606880C351D140CC5EDE4F7880C451D14004
S1130670A62CB72CA4E1A49DC001A59D900D112426
S1130680E1E5F0E0EC0FFD1FE80FF91FC15FDE4F5D
S1130690F983E883CF50D1405DC04A145B04D1F4A0
S11306A0C701800F911F0E94C505D4018C9190E071
S11306B080979C01220F331F220F331F820F931F39
S11306C0FC01E00FF11FE059FF4F849180950E94D7
S11306D0810517C0C8018E0D9F1D0E94C505F60136
S11306E0808190E08097FC01EE0FFF1FEE0FFF1F4B
S11306F0E80FF91FE00FF11FE059FF4F84910E94AA
S113070081050F5F1F4F0530110539F6F5E0EF0E37
S1130710F11C2FEF821A920A3AE5E316F10469F00C
S1130720C35FDE4FC880D980CD50D140C80CD91CDE
S1130730C60CD71C032D122DB0CF4FEFA41AB40A48
S1130740C5010E94CF0584E1680E711C95E0A916CD
S1130750B10489F0C15FDE4F88809980CF50D140C9
S1130760CF5EDE4FE880C151D140CE5EDE4FF880CF
S1130770C251D140D5CFAFEFBFE7E7E0A150B040C1
S1130780E040E1F700C00000F0CE44244394512C33
S113079085E090E00E944501082F10E084E090E09D
S11307A00E94450190E08D37910538F4F4E04F162E
S11307B051041CF42FEF421A520A8838910538F07C
S11307C032E0431651041CF041E0441A51080C3342
S11307D0110508F45FC10739110550F0C2010197F2
S11307E0039730F45AC18430910509F021C1BEC089
S11307F00E94D305CD5EDE4F8881C351D140CC5ECB
S1130800DE4F9881C451D1400E94C505CD5EDE4FB4
S11308108881C351D140CC5EDE4F9881C451D14010
S11308200E94CF054CEE92014203C001439F900DFC
S11308301124C35FDE4F99838883CD50D140CD5EB0
S1130840DE4F6880C351D140CC5EDE4F7880C45106
S1130850D140A62CB72CA4E1A49DC001A59D900D68
S11308601124E1E5F0E0EC0FFD1FE80FF91FC15F73
S1130870DE4FF983E883CF50D1405DC04A145B0456
S1130880D1F4C701800F911F0E94C505D4018C913A
S113089090E080979C01220F331F220F331F820F99
S11308A0931FFC01E00FF11FE059FF4F84918095E5
S11308B00E94810517C0C8018E0D9F1D0E94C505A9
S11308C0F601808190E08097FC01EE0FFF1FEE0F90
S11308D0FF1FE80FF91FE00FF11FE059FF4F84914C
S11308E00E9481050F5F1F4F0530110539F6F5E0B1
S11308F0EF0EF11C2FEF821A920A31E4E316F10491
S113090069F0C35FDE4FC880D980CD50D140C80C98
S1130910D91CC60CD71C032D122DB0CF4FEFA41A2F
S1130920B40AC5010E94CF0584E1680E711C94E0ED
S1130930A916B10489F0C15FDE4F88809980CF5039
S1130940D140CF5EDE4FE880C151D140CE5EDE4F54
S1130950F880C251D140D5CFAFEFBFE7E7E0A15057
S1130960B040E040E1F700C0000012CF0E94D30580
S113097080E090E00E94C50580E090E00E94CF05F1
S113098086E1CB5EDE4F28813981C551D140829FFB
S11309906001839FD00C112485EB90E08C0F9D1F88
S11309A0C80ED91EE12CF12CCD5EDE4FB880C351A8
S11309B0D140CC5EDE4FA880C451D14026C0C801CE
S11309C08E0D9F1D0E94C505D6018C9190E08097E5
S11309D0FC01EE0FFF1FEE0FFF1FE80FF91FE00FE2
S11309E0F11FE059FF4F84910E9481050F5F1F4F53
S11309F00530110521F7B5E0EB0EF11CEFEFCE1A2F
S1130A00DE0AF4E6EF16F10419F00B2D1A2DD7CFF8
S1130A1081E090E00E94CF052FEF3FE745E22150AF
S1130A2030404040E1F700C0000081E090E0AFCCEE
S1130A308530910509F4A6CC8630910509F4A5CC3E
S1130A40A6CC5F924F92A7ECB4E0BF93AF930E9401
S1130A50A3070F900F900F900F90183808F085CDD2
S1130A60C3CC81E090E0BFCE22E030E0CB5EDE4F2D
S1130A7039832883C551D14084E090E0B4CE83E02B
S1130A8090E0CB5EDE4F99838883C551D14084E0EA
S1130A9090E0A9CE81E090E0CBCF86E090E0C8CF93
S1130AA08FE190E00E9422060E94FB050E946805E7
S1130AB00E944F010E9484050E9497050E947901BB
S1130AC0C49880EC0E941606C49A80E090E00895D1
S1130AD00E940E060E94600580E090E00895CF9386
S1130AE0DF93D82FC62FC49882E00E9416068D2F5C
S1130AF00E9416068C2F0E941606C49ADF91CF918D
S1130B00089580930012089585B7806885BF80B7E3
S1130B10806280BF80B78F7E80BF80B7877F80BFB1
S1130B2085B7826085BF86B78F7B86BF0895E0E076
S1130B30F0E18EEA808381EA80838AED808382E11A
S1130B40808388EC808388EA80838FE3808385EDCB
S1130B50808380E8808381E8808380E5808389EDD9
S1130B60808381E2808380E2808382E080838DEBD6
S1130B70808380E380838DEA8083108284EA80838B
S1130B8086EA80838FEA80830895982F9F70E0E03F
S1130B90F0E1908382958F70805F80830895805503
S1130BA0809300100895AF92BF92DF92EF921F934B
S1130BB0CF93DF930F2EF0EBEF2EF02DA12C689442
S1130BC0BB24B4F8D12CC0E0D2E1F501E0821D2DA4
S1130BD0812F0E94C50518821F5F1038C9F7E3945E
S1130BE0F8EBEF12F2CFDF91CF911F91EF90DF90EE
S1130BF0BF90AF90089585B7806885BF80B7806245
S1130C0080BF80B78F7E80BF80B7877F80BF85B766
S1130C10826085BF86B78F7B86BF089587B3806B5C
S1130C2087BBBE988DB181658DB908958FB9779BC7
S1130C30FECF08955D9BFECF8CB908955F9BFECFD8
S1130C408CB1089590BD89B988E18AB96EE176E0E6
S1130C508AE196E00E9458079093CD048093CC04D7
S1130C600895CF93DF938230910510F482E090E0F1
S1130C70E091D004F091D10420E030E0A0E0B0E0B5
S1130C80309739F14081518148175907B8F0481716
S1130C90590771F482819381109729F013969C93DC
S1130CA08E9312972CC09093D1048093D00427C0C4
S1130CB02115310531F04217530718F0A901DB0162
S1130CC001C0EF019A01BD01DF010280F381E02D33
S1130CD0D7CF21153105F9F0281B390B2430310504
S1130CE080F48A819B816115710521F0FB01938356
S1130CF0828304C09093D1048093D004FE01329681
S1130D0044C0FE01E20FF31F8193919322503109F5
S1130D10398328833AC02091CE043091CF04232B09
S1130D2041F420910201309103013093CF042093C8
S1130D30CE0420910001309101012115310541F4C7
S1130D402DB73EB74091040150910501241B350B8A
S1130D50E091CE04F091CF04E217F307A0F42E1B28
S1130D603F0B2817390778F0AC014E5F5F4F24170B
S1130D70350748F04E0F5F1F5093CF044093CE04C5
S1130D808193919302C0E0E0F0E0CF01DF91CF9135
S1130D900895CF93DF93009709F487C0FC0132973D
S1130DA013821282C091D004D091D104209781F48F
S1130DB020813181280F391F8091CE049091CF0476
S1130DC08217930779F5F093CF04E093CE046DC0B6
S1130DD0DE0120E030E0AE17BF0750F412964D91CB
S1130DE05C9113979D014115510509F1DA01F3CF87
S1130DF0B383A28340815181840F951F8A179B0777
S1130E0071F48D919C911197840F951F0296918393
S1130E10808312968D919C911397938382832115DD
S1130E20310529F4F093D104E093D0043EC0D901F4
S1130E301396FC93EE9312974D915D91A40FB51FF9
S1130E40EA17FB0779F480819181840F951F02963C
S1130E50D90111969C938E938281938113969C93CE
S1130E608E931297E0E0F0E08A819B81009719F05D
S1130E70FE01EC01F9CFCE01029628813981820F5F
S1130E80931F2091CE043091CF042817390769F4B9
S1130E90309729F41092D1041092D00402C0138226
S1130EA01282D093CF04C093CE04DF91CF910895E2
S1130EB00F931F93CF93DF93EC018B01009731F4D1
S1130EC06115710519F480E090E038C06EE070E0BF
S1130ED081E090E00E948909FC010097A1F380E879
S1130EE083830115110571F01387028781E88383D9
S1130EF08091D2049091D304892B21F4F093D304EC
S1130F00E093D2042097C9F0D187C087838182609F
S1130F1083838091D4049091D504892B71F4F09348
S1130F20D504E093D4048091D6049091D704892BFE
S1130F3021F4F093D704E093D604CF01DF91CF914D
S1130F401F910F910895A0E0B0E0E9EAF7E00C9456
S1130F50620AFE01359661917191AF018091D404CA
S1130F609091D5040E94B707E2E00C947E0AACE0AD
S1130F70B0E0EDEBF7E00C94520A7C016B018A01BE
S1130F80FC0117821682838181FFBDC1CE010196C7
S1130F904C01F7019381F60193FD859193FF8191B3
S1130FA06F01882309F4ABC1853239F493FD85912F
S1130FB093FF81916F01853229F4B70190E00E947B
S1130FC0C209E7CF512C312C20E02032A0F48B321F
S1130FD069F030F4803259F0833269F420612CC016
S1130FE08D3239F0803339F4216026C022602460C8
S1130FF023C0286021C027FD27C030ED380F3A30C8
S113100078F426FF06C0FAE05F9E300D1124532EBB
S113101013C08AE0389E300D1124332E20620CC098
S11310208E3221F426FD6BC1206406C08C3611F487
S1131030206802C0883641F4F60193FD859193FF40
S113104081916F018111C1CF982F9F7D9554933069
S113105028F40C5F1F4FFFE3F9830DC0833631F092
S1131060833771F0833509F05BC022C0F8018081B9
S113107089830E5F1F4F44244394512C540115C09F
S11310803801F2E06F0E711CF801A080B18026FFD8
S113109003C0652D70E002C06FEF7FEFC5012C87A0
S11310A00E94B7092C0183012C852F77222E17C0AB
S11310B03801F2E06F0E711CF801A080B18026FFA8
S11310C003C0652D70E002C06FEF7FEFC5012C8770
S11310D00E94A5092C012C852068222E830123FC63
S11310E01BC0832D90E048165906B0F4B70180E286
S11310F090E00E94C2093A94F4CFF50127FC85914F
S113110027FE81915F01B70190E00E94C20931106E
S11311103A94F1E04F1A51084114510471F7E5C0B3
S1131120843611F0893639F5F80127FF07C060814C
S11311307181828193810C5F1F4F08C0608171812E
S1131140882777FD8095982F0E5F1F4F2F76B22E3C
S113115097FF09C090958095709561957F4F8F4F4B
S11311609F4F2068B22E2AE030E0A4010E94F409C7
S1131170A82EA81844C0853729F42F7EB22E2AE061
S113118030E025C0F22FF97FBF2E8F36C1F018F45E
S1131190883579F0B4C0803719F0883721F0AFC0B2
S11311A02F2F2061B22EB4FE0DC08B2D8460B82E7B
S11311B009C024FF0AC09F2F9660B92E06C028E0FC
S11311C030E005C020E130E002C020E132E0F80167
S11311D0B7FE07C060817181828193810C5F1F4FCC
S11311E006C06081718180E090E00E5F1F4FA40112
S11311F00E94F409A82EA818FB2DFF77BF2EB6FE77
S11312000BC02B2D2E7FA51450F4B4FE0AC0B2FCE3
S113121008C02B2D2E7E05C07A2C2B2D03C07A2CD2
S113122001C0752C24FF0DC0FE01EA0DF11D808163
S1131230803311F4297E09C022FF06C0739473948D
S113124004C0822F867809F0739423FD13C020FF15
S113125006C05A2C731418F4530C5718732C7314B7
S113126068F4B70180E290E02C870E94C20973946D
S11312702C85F5CF731410F4371801C0312C24FFDA
S113128012C0B70180E390E02C870E94C2092C852C
S113129022FF17C021FF03C088E590E002C088E761
S11312A090E0B7010CC0822F867859F021FD02C06E
S11312B080E201C08BE227FD8DE2B70190E00E943D
S11312C0C209A51438F4B70180E390E00E94C20972
S11312D05A94F7CFAA94F401EA0DF11D8081B70165
S11312E090E00E94C209A110F5CF332009F451CE39
S11312F0B70180E290E00E94C2093A94F6CFF70168
S11313008681978102C08FEF9FEF2C96E2E10C94C7
S11313106E0A0F931F93CF93DF93869F8001879F5D
S1131320100D969F100D1124C8010E943106EC0186
S1131330009729F0A80160E070E00E94B009CE0196
S1131340DF91CF911F910F910895FC010590615099
S113135070400110D8F7809590958E0F9F1F0895C7
S1131360DC0101C06D9341505040E0F70895FC0149
S11313706150704001900110D8F7809590958E0FC0
S11313809F1F08950F931F93CF93DF93182F092F57
S1131390EB018B8181FD03C08FEF9FEF20C082FFA3
S11313A010C04E815F812C813D81421753077CF42C
S11313B0E881F9819F012F5F3F4F39832883108390
S11313C006C0E885F985812F0995892B29F72E8197
S11313D03F812F5F3F4F3F832E83812F902FDF91DB
S11313E0CF911F910F910895FA01AA27283051F146
S11313F0203181F1E8946F936E7F6E5F7F4F8F4F42
S11314009F4FAF4FB1E03ED0B4E03CD0670F781FA0
S1131410891F9A1FA11D680F791F8A1F911DA11D85
S11314206A0F711D811D911DA11D20D009F46894BE
S11314303F912AE0269F11243019305D3193DEF666
S1131440CF010895462F4770405D4193B3E00FD01C
S1131450C9F7F6CF462F4F70405D4A3318F0495D07
S113146031FD4052419302D0A9F7EACFB4E0A695EA
S11314709795879577956795BA95C9F7009761050C
S1131480710508959B01AC010A2E06945795479562
S113149037952795BA95C9F7620F731F841F951F57
S11314A0A01D08952F923F924F925F926F927F9268
S11314B08F929F92AF92BF92CF92DF92EF92FF9260
S11314C00F931F93CF93DF93CDB7DEB7CA1BDB0B0C
S11314D00FB6F894DEBF0FBECDBF09942A883988B1
S11314E048885F846E847D848C849B84AA84B984B8
S11314F0C884DF80EE80FD800C811B81AA81B981C4
S1131500CE0FD11D0FB6F894DEBF0FBECDBFED01D7
S10915100895F894FFCFDA
S11315160000D80420004E61612065722064657461
S113152620736E617274206A756C206961617272CF
S113153673002D2D484F5645444D454E592D2D00CB
S113154600000000000020486A656D20202020204D
S113155620202000000000000000205465616D7307
S1131566202020202020200000000000000020472A
S1131576616D656D6F6465732020200000000000B6
S1131586000020486967682053636F726520200055
S11315960000000000002D2D5445414D2D2D202026
S11315A620202020202020200000204765726D6125
S11315B66E202020202020202020202000002041F2
S11315C66C6C6965642020202020202020202020A7
S11315D6000020536F766965742020202020202087
S11315E62020202000002053776564656E20286340
S11315F66F7761726473292000002D2D47414D4594
S11316064D4F4445532D2D00000000000000204E90
S11316166F726D616C2020202020200000000000E5
S1131626000020486172642D6D6F646520202000DF
S1131636000000000000204461726B20736F756C1B
S1131646732020000000000000005465616D2063D3
S1131656686F73656E3A204765726D616E205465D6
S1131666616D2063686F73656E3A20416C6C6965C1
S113167664205465616D2063686F73656E3A205308
S11316866F76696574205465616D2063686F736550
S11316966E3A2053776564656E20000004000400EA
S11316A60300000003002D2D484F5645444D454E7A
S11316B6592D2D000000000000002043686F6F7351
S11316C665205465616D200000000000000020477D
S11316D6616D656D6F646573202020000000000055
S11316E6000020486967682053636F7265202000F4
S11316F600000000000020202020202D2D5445410C
S11317064D2D2D20202020200000204765726D617C
S11317166E20202020202020202020200000204190
S11317266C6C696564202020202020202020202045
S1131736000020536F766965742020202020202025
S11317462020202000002053776564656E202863DE
S11317566F7761726473292000005465616D20639C
S1131766686F73656E3A204765726D616E2000007E
S11317765465616D2063686F73656E3A20416C6CC5
S11317866965642000005465616D2063686F736544
S11317966E3A20536F766965742000005465616D56
S11317A62063686F73656E3A2053776564656E20AF
S11317B60000205465616D3A204765726D616E794B
S11317C6200000000000205465616D3A20416C6CD5
S11317D669656420200000000000205465616D3AAC
S11317E620536F76696574202000000000002054A1
S11317F665616D3A2053776564656E2020000000AC
S113180600002D2D47414D494E472D2D0000000067
S11318160000000000004A6F79737469636B3A2014
S113182625640A004C65667420627574746F6E3A9A
S113183620256420526967687420627574746F6E1B
S11318463A2025640A0054657374696E672041441E
S1131856433A0025642025642025642025640A0073
S11318664E45555452414C00555000444F574E0076
S11318765249474854004C454654000A0A00256319
S1131886250A006361736520322C20785F766F6CBD
S113189674203D20256400444154415B25645D3A2F
S11318A6202564200A0049442072656365697665CB
S11318B6643A2025303278200A004C656E677468D5
S11318C63A202564200A006A6F793A202564200AA2
S10F18D6004C4946453A2025640A0000F5
S9030000FC
