S014000050696E67506F6E6747616D652E7372656374
S11300000C9431010C944E010C944E010C944E014D
S11300100C944E010C944E010C944E010C944E0120
S11300200C944E010C944E010C944E010C944E0110
S11300300C944E010C944E010C944E010C944E0100
S11300400C944E010C944E010C944E010C944E01F0
S11300500C944E010C944E010C944E010C944E01E0
S11300600C944E010C944E010C944E010C944E01D0
S1130070000E3B2163C663213B0E00000E3F3F7F11
S1130080FE7F3F3F0E00000000000000005F000004
S11300900007000700147F147F14242A7F2A1223E8
S11300A01308646236495522500005030000001C01
S11300B02241000041221C00082A1C2A0808083E8C
S11300C008080050300000080808080800606000B4
S11300D00020100804023E5149453E00427F400082
S11300E042615149462141454B311814127F102772
S11300F0454545393C4A49493001710905033649AA
S1130100494936064949291E00363600000056364C
S11301100000000814224114141414144122140879
S1130120000201510906324979413E7E1111117EC6
S11301307F494949363E414141227F4141221C7F4A
S1130140494949417F090901013E414151327F0832
S113015008087F00417F41002040413F017F08148F
S113016022417F404040407F0204027F7F04081008
S11301707F3E4141413E7F090909063E4151215ECE
S11301807F09192946464949493101017F01013F47
S11301904040403F1F2040201F7F2018207F6314D1
S11301A00814630304780403615149454300007F44
S11301B04141020408102041417F00000402010271
S11301C0044040404040000102040020545454784C
S11301D07F484444383844444420384444487F38B1
S11301E054545418087E090102081454543C7F08DE
S11301F004047800447D40002040443D00007F100A
S1130200284400417F40007C041804787C080404DE
S11302107838444444387C14141408081414187CA2
S11302207C080404084854545420043F4440203CAF
S11302304040207C1C2040201C3C4030403C442852
S11302401028440C5050503C4464544C440008362C
S1130250410000007F000000413608000201030253
S1130260010011241FBECFEFD4E0DEBFCDBF12E0EA
S1130270A0E0B1E0E8E2FCE102C005900D92A834F0
S1130280B107D9F722E0A8E4B2E001C01D92A43579
S1130290B207E1F70E94110A0C94120E0C940000AC
S11302A08093001486E692E00197F1F700008091B4
S11302B0001408950E94210A82E58A95F1F760E806
S11302C08FE00E943E0A63E08BE20E943E0A60E0F7
S11302D08CE20E943E0A60E08DE20E943E0A60E0E9
S11302E08CE00E943E0A60E08DE00E943E0A60E6D7
S11302F080E60E943E0A60E680E70E943E0A60E0D3
S11303008FE00E943E0A0895CF92DF92EF92FF920F
S11303100F931F93CF93DF93CDB7DEB72B970FB611
S1130320F894DEBF0FBECDBFE982FA820B831C8333
S11303302D833E834F83588769877A878B876E2DF9
S113034081E30E943E0A6E2D81E30E943E0A602FE3
S113035085E30E943E0AC02ED12C1C141D0494F483
S11303607E0184E0E80EF11C00E010E0F7016191E9
S11303707F0186E3800F0E943E0A0F5F1F4F0C151A
S11303801D05A4F381E80E94500A2B960FB6F89439
S1130390DEBF0FBECDBFDF91CF911F910F91FF90B4
S11303A0EF90DF90CF900895EF92FF920F931F93F9
S11303B0CF93DF937C0181E60E94300A90E0F7013D
S11303C09183808385E60E94300AF7018283882323
S11303D099F087010D5F1F4FC0E0D0E08C2F8A5940
S11303E00E94300AF80181938F012196F70122813E
S11303F030E0C217D30794F360E08CE20E943E0A17
S1130400DF91CF911F910F91FF90EF900895CF93BB
S1130410DF93CDB7DEB7C657D1400FB6F894DEBF31
S11304200FBECDBFDE01119684E3FD0111928A95C2
S1130430E9F78DE0E6E0F1E001900D928A95E1F7AD
S11304408DE0E4E1F1E0DE011E9601900D928A95C3
S1130450E1F78DE0E2E2F1E0DE015B9601900D92BE
S11304608A95E1F78AE5E0E3F1E0DE01D5960190B3
S11304700D928A95E1F784E3EAE8F1E0DE01A15701
S1130480BF4F01900D928A95E1F780E5EEEBF1E024
S1130490DE01AD53BF4F01900D928A95E1F786E1DD
S11304A0EEE0F2E0DE01AD5EBE4F01900D928A9562
S11304B0E1F781E1E4E2F2E0DE01A75DBE4F0190E5
S11304C00D928A95E1F789E0E5E3F2E0DE01A65CAE
S11304D0BE4F01900D928A95E1F78AE0EEE3F2E0D7
S11304E0DE01AD5BBE4F01900D928A95E1F780E786
S11304F0E82EC35BDE4F8883CD54D140C25BDE4F10
S11305001882CE54D14087E0C15BDE4F8883CF543C
S1130510D1408AE0CE5ADE4F8883C255D140F12CB7
S113052007E0C05BDE4F1881C055D140CF5ADE4F83
S11305302881C155D1403AE0CD5ADE4F4881C35598
S1130540D140CC5ADE4F5881C455D140CB5ADE4FEE
S11305506881C555D140CA5ADE4F7881C655D1400D
S1130560C95ADE4F8881C755D1400E948401C759BA
S1130570DE4F1882C956D140CD58DE4F19821882F9
S1130580C357D14081E090E0C259DE4F1882CE5665
S1130590D140C159DE4F1882CF56D140F0E0CF5838
S11305A0DE4FF883C157D14020E0CE58DE4F288378
S11305B0C257D140CD59DE4FF883C356D140CC59F0
S11305C0DE4F2883C456D1408130910509F00CC216
S11305D022242394312C85E090E00E945001182FAE
S11305E084E090E00E945001282F30E02D3731053F
S11305F040F442E0241631040CF0CDC65FEF251A16
S1130600350A2338310538F082E0281631041CF00D
S113061091E0291A3108183850F0A1E02A16310463
S113062009F4C3C0B2E02B16310409F4E5C10E94F9
S1130630A70AC259DE4F8881CE56D140C159DE4F38
S11306409881CF56D1400E94990AC259DE4F8881C1
S1130650CE56D140C159DE4F9881CF56D1400E9429
S1130660A30A43EF910142032001439F500C11243C
S1130670C259DE4F6880CE56D140C159DE4F7880D2
S1130680CF56D140862C972C5DE0529DC001539DDE
S1130690900D1124A1E0B0E0AC0FBD1FA80FB91F4D
S11306A0CB59DE4FB983A883C556D14060C0281406
S11306B03904D1F4C701800F911F0E94990AF501F2
S11306C0808190E080979C01220F331F220F331FFB
S11306D0820F931FFC01E00FF11FEA57FF4F849133
S11306E080950E94550A17C0C8018E0D9F1D0E9457
S11306F0990AD6018C9190E08097FC01EE0FFF1FC0
S1130700EE0FFF1FE80FF91FE00FF11FEA57FF4F2D
S113071084910E94550A0F5F1F4F0530110539F669
S1130720B5E0EB0EF11CEFEFAE1ABE0AF1E4EF16E2
S1130730F10481F06501C40CD51CC60CD71CCD593D
S1130740DE4F0881C356D140CC59DE4F1881C456C0
S1130750D140ADCF2FEF821A920AC4010E94A30A9E
S11307603DE0630E711C43E08416910489F0CB597B
S1130770DE4FA880B980C556D140CF58DE4FE880FF
S1130780C157D140CE58DE4FF880C257D140D2CFA6
S11307905FEF8FEF92E0515080409040E1F700C04E
S11307A000C019CF22242394312C0E94A70AC259D5
S11307B0DE4F8881CE56D140C159DE4F9881CF5645
S11307C0D1400E94990AC259DE4F8881CE56D14049
S11307D0C159DE4F9881CF56D1400E94A30A4EEEF4
S11307E0910142032001439F500C1124C259DE4F52
S11307F06880CE56D140C159DE4F7880CF56D14063
S1130800A62CB72CC101880F991F9C01220F331FFE
S1130810220F331F220F331F820F931FA5E3B0E073
S1130820AC0FBD1FA80FB91FCB59DE4FB983A883E6
S1130830C556D14060C02A143B04D1F4C8018E0DC2
S11308409F1D0E94990AF401808190E080979C0189
S1130850220F331F220F331F820F931FFC01E00F5F
S1130860F11FEA57FF4F849180950E94550A17C0E3
S1130870C8018E0D9F1D0E94990AD6018C9190E0AB
S11308808097FC01EE0FFF1FEE0FFF1FE80FF91F0B
S1130890E00FF11FEA57FF4F84910E94550A0F5F42
S11308A01F4F0530110539F6B5E0EB0EF11CEFEFE3
S11308B08E1A9E0AFAE5EF16F10481F06401C40C65
S11308C0D51CC60CD71CCD59DE4F0881C356D14068
S11308D0CC59DE4F1881C456D140ADCF2FEFA21AA8
S11308E0B20AC5010E94A30A32E1630E711C45E0FD
S11308F0A416B10489F0CB59DE4F88809980C5567F
S1130900D140CF58DE4FE880C157D140CE58DE4F9A
S1130910F880C257D140D2CF5FEF8FEF92E05150B1
S113092080409040E1F700C000C085E090E00E9464
S11309305001182F84E090E00E945001482F50E0AD
S1130940BA9826B322FB222720F94D37510538F4F3
S1130950A4E02A1631041CF4BFEF2B1A3B0A4838D2
S1130960510538F0E2E02E1631041CF0F1E02F1AA4
S113097031081C3308F414C5CA58DE4F3881C657F1
S1130980D140332331F0CA58DE4F2883C657D140B3
S11309900CCF41E02416310449F052E0251631040D
S11309A0A1F083E02816310459F4FDC4CD58DE4F7C
S11309B01882C357D140CC58DE4F1882C457D14057
S11309C094E02916310449F4F9C4A1E0B0E0CD580B
S11309D0DE4FB983A883C357D14084E090E0F8C4C4
S11309E08330910531F018C18230910509F4DACED3
S11309F0F7CF22242394312CCB58DE4FB881C5572E
S1130A00D140C959DE4FB883C756D1400E94A70AC6
S1130A10C259DE4F8881CE56D140C159DE4F9881EC
S1130A20CF56D1400E94990AC259DE4F8881CE56D2
S1130A30D140C159DE4F9881CF56D1400E94A30ABC
S1130A4043EF910142032001439F500C1124C259EA
S1130A50DE4F6880CE56D140C159DE4F7880CF56E4
S1130A60D140862C972C5DE0529DC001539D900D82
S1130A701124AFE8B0E0AC0FBD1FA80FB91FCB59CC
S1130A80DE4FB983A883C556D14060C02814390409
S1130A90D1F4C701800F911F0E94990AF50180814A
S1130AA090E080979C01220F331F220F331F820F87
S1130AB0931FFC01E00FF11FEA57FF4F84918095CB
S1130AC00E94550A17C0C8018E0D9F1D0E94990AE5
S1130AD0D6018C9190E08097FC01EE0FFF1FEE0F82
S1130AE0FF1FE80FF91FE00FF11FEA57FF4F849132
S1130AF00E94550A0F5F1F4F0530110539F6B5E006
S1130B00EB0EF11CEFEFAE1ABE0AF1E4EF16F1049E
S1130B1081F06501C40CD51CC60CD71CCD59DE4F21
S1130B200881C356D140CC59DE4F1881C456D140F8
S1130B30ADCF2FEF821A920AC4010E94A30A3DE0AE
S1130B40630E711C44E08416910489F0CB59DE4F86
S1130B50A880B980C556D140CF58DE4FE880C15730
S1130B60D140CE58DE4FF880C257D140D2CF5FEF8C
S1130B708FEF92E0515080409040E1F700C000C0F8
S1130B80BA9816B312FB112710F985E090E00E9481
S1130B905001082F84E090E00E945001282F30E09B
S1130BA02D37310538F4A3E02A1631041CF4BFEFC5
S1130BB02B1A3B0A2838310538F0E2E02E163104AE
S1130BC01CF0F1E02F1A31080C3308F407C4C9599A
S1130BD0DE4F2881C756D140211122C0CB58DE4FA9
S1130BE01883C557D14031E02316310469F042E03F
S1130BF02416310409F40CC453E02516310409F415
S1130C00F5C383E090E008C085E0C759DE4F8883D0
S1130C10C956D14086E090E08430910581F071C0DE
S1130C209FEFAFEFB2E09150A040B040E1F700C0B9
S1130C3000C0C959DE4F1883C756D140E7CE0E9481
S1130C40A70A80E090E00E94990A80E090E00E9468
S1130C50A30A84E1CD58DE4FE881F981C357D1401E
S1130C608E9F60018F9FD00C112423EC30E02C0F59
S1130C703D1FC20ED31EE12CF12CC259DE4FB880A9
S1130C80CE56D140C159DE4FA880CF56D14026C0A0
S1130C90C8018E0D9F1D0E94990AD6018C9190E087
S1130CA08097FC01EE0FFF1FEE0FFF1FE80FF91FE7
S1130CB0E00FF11FEA57FF4F84910E94550A0F5F1E
S1130CC01F4F0530110521F7B5E0EB0EF11CEFEFD6
S1130CD0CE1ADE0AF4E6EF16F10419F00B2D1A2DE4
S1130CE0D7CF81E090E00E94A30A2FEF3FEF4EE0C0
S1130CF0215030404040E1F700C0000081E090E026
S1130D001FC28530910509F04FC00E94A70A80E0F8
S1130D1090E00E94990A83E090E00E94A30A6E0189
S1130D205DEEC51A5EEFD50AE12CF12CC259DE4FF7
S1130D30B880CE56D140C159DE4FA880CF56D1409D
S1130D4026C0C701800F911F0E94990AD6018C9179
S1130D5090E08097FC01EE0FFF1FEE0FFF1FE80FDE
S1130D60F91FE00FF11FEA57FF4F84910E94550AC3
S1130D700F5F1F4F0530110521F7B5E0EB0EF11C95
S1130D80EFEFCE1ADE0AFEE6EF16F10419F00B2D92
S1130D901A2DD7CF2FEF3FEF4DE121503040404087
S1130DA0E1F700C00000D0C18630910509F0C8C148
S1130DB00E94A70A80E090E00E94A30A6E0157ED0A
S1130DC0C51A5EEFD50AE12CF12CC259DE4FB8806A
S1130DD0CE56D140C159DE4FA880CF56D14026C04F
S1130DE0C701800F911F0E94990AD6018C9190E04F
S1130DF08097FC01EE0FFF1FEE0FFF1FE80FF91F96
S1130E00E00FF11FEA57FF4F84910E94550A0F5FCC
S1130E101F4F0530110521F7B5E0EB0EF11CEFEF84
S1130E20CE1ADE0AF5E5EF16F10419F00B2D1A2D92
S1130E30D7CFC759DE4F2881C956D140222309F4A0
S1130E4016C1C659DE4F188219821A821B82CA56ED
S1130E50D140222E312C0F2EF0E74F2EF0E05F2EE2
S1130E60F02D0F2EFBE76F2EF0E07F2EF02DCB59E7
S1130E70DE4F4882C556D140C959DE4F5882C75605
S1130E80D1408BE090E00E947D0C8C010E94D40143
S1130E90D8011A96BC91C859DE4FB883C856D140C0
S1130EA0C8010E94150D84E090E00E94CF0A80E002
S1130EB090E00E94990A84E090E00E94A30A121430
S1130EC013040CF03FC0812C912CE12CF12CC85957
S1130ED0DE4FE881C856D140AE2EB12C25C0EA14AD
S1130EE0FB0454F0C601800F911F0E94990AF80177
S1130EF084910E94550A0AC0C601800F911F0E9466
S1130F00990AF8013B9684910E94550A0F5F1F4F7E
S1130F100615170521F7FFEFEF1AFF0A2BE0820EE3
S1130F20911CE214F30474F4CB59DE4F0881C556C6
S1130F30D140C959DE4F1881C756D1406401C41845
S1130F40D508CDCF8CEC94E00197F1F700C00000F8
S1130F5087B3887F87BB85E090E00E945001182FFB
S1130F6084E090E00E945001C82E87E090E00E9447
S1130F705001D82E86E090E00E94500146B356B34B
S1130F80B6B2B2FABB24B0F80F2EF0E7EF2EF02D74
S1130F90C85ADE4FE882C855D140C75ADE4F18827E
S1130FA0C955D14097E0C65ADE4F9883CA55D140FF
S1130FB0C55ADE4F1883CB55D140C45ADE4FC88280
S1130FC0CC55D140C059DE4F3881C057D140A1E043
S1130FD03A27C35ADE4F3883CD55D1404170C25AA7
S1130FE0DE4F4883CE55D14056955170C15ADE4FDD
S1130FF05883CF55D140C05ADE4FD882C056D14015
S1131000C759DE4FB881C956D140CF59DE4FB88396
S1131010C156D140F12C07E02C2D6D2D7B2FCE59DC
S1131020DE4F8881C256D1400E948401C659DE4FEA
S1131030288139814A815B81CA56D1402F5F3F4F55
S11310404F4F5F4FC659DE4F288339834A835B83F2
S1131050CA56D140C859DE4F3881C856D1403323CF
S1131060E9F0C059DE4FB882C057D1400ACFC05909
S1131070DE4FB880C057D140C759DE4F4881C956AA
S1131080D140C859DE4F4883C856D140C659DE4FB7
S1131090188219821A821B82CA56D14080E7E82E30
S11310A0C85ADE4F8883C855D140C75ADE4F1882CC
S11310B0C955D14087E0C65ADE4F8883CA55D1400E
S11310C08AE0C35ADE4F8883CD55D140F12C07E026
S11310D0C55ADE4F1881CB55D140C45ADE4F288102
S11310E0CC55D1403AE0C25ADE4F4881CE55D1406A
S11310F0C15ADE4F5881CF55D140C05ADE4F688166
S1131100C056D140CF59DE4F7881C156D140CE5917
S1131110DE4F8881C256D1400E948401C059DE4FFF
S1131120B882C057D140C859DE4F5881C856D14003
S1131130C759DE4F5883C956D14085E090E044CA70
S11311408730910509F040CAC659DE4F688179811C
S11311508A819B81CA56D1400E94880B6B017C0115
S113116020E030E040E85FE30E94140C88230CF494
S113117046C1812C912C20E030E040E251E4C701CB
S1131180B6010E941E0B6B017C018FEF881A980A2E
S113119020E030E040E85FE3C701B6010E94140C90
S11311A088234CF74DB65EB6ADB7BEB7A819B909DA
S11311B00FB6F894BEBF0FBEADBF8DB79EB70196F4
S11311C03C0118141904D4F58C017C01E80CF91CB9
S11311D06401C659DE4F88809980AA80BB80CA56B4
S11311E0D140C501B4012AE030E040E050E00E9463
S11311F03C0CF80161938F01862F972FAA2797FD46
S1131200A095BA2FA5019401281B390B4A0B5B0B3F
S1131210CA01B9012AE030E040E050E00E943C0CF1
S113122049015A010E151F05E1F6C659DE4F288300
S113123039834A835B83CA56D14046010E94A70A78
S113124080E090E00E94990A80E090E00E94A30A66
S1131250AE01465C5E4F6A01A12CB12CC259DE4F2F
S11312603880CE56D140C159DE4F2880CF56D14068
S113127026C0C701800F911F0E94990AD6018C9144
S113128090E08097FC01EE0FFF1FEE0FFF1FE80FA9
S1131290F91FE00FF11FEA57FF4F84910E94550A8E
S11312A00F5F1F4F0530110521F7B5E0AB0EB11CE0
S11312B0EFEFCE1ADE0AFDE2AF16B10439F0032DCA
S11312C0122D75012EE1E20EF11CD3CF82E090E0E5
S11312D00E94A30A181419040CF04CC0540131E004
S11312E0A31AB108812C912CC259DE4F3880CE56F6
S11312F0D140C159DE4F2880CF56D14031C0C601FC
S1131300800F911F0E94990AD7018C91E3E4F1E0C8
S1131310EC0FFD1FE80FF11D808190E08097FC0128
S1131320EE0FFF1FEE0FFF1FE80FF91FE00FF11F75
S1131330EA57FF4F84910E94550AE0E0F0EF31979D
S1131340F1F70F5F1F4F05301105C9F6F1E0AF1A31
S1131350B10825E0820E911C3FEFA316B30651F0AD
S1131360032D122D64014EE1C40ED11C7301EA0C4D
S1131370FB1CC5CF5FEF8FEF9BE351508040904043
S1131380E1F700C000000FB6F8945EBE0FBE4DBE7C
S113139081E090E019C92338310508F039C93BC907
S11313A081E090E015C0A2E0B0E0CD58DE4FB983F3
S11313B0A883C357D14084E090E00AC0E3E0F0E0A2
S11313C0CD58DE4FF983E883C357D14084E090E0E1
S11313D0CA58DE4F2883C657D1401ECCCB58DE4FA7
S11313E01883C557D14081E090E08BCCF1E0C75918
S11313F0DE4FF883C956D14086E090E082CC4DB6EA
S11314005EB6812C912C9E012F5F3F4F390116CF80
S113141033E0C759DE4F3883C956D14086E090E0A7
S113142070CC8FE190E00E940F0B0E94E30A0E94AF
S1131430290A0E945A010E94580A0E946B0A0E94BB
S11314400702C49880EC0E94FE0AC49A80E090E0EF
S113145008950E94F60A0E94210A80E090E008950F
S1131460CF93C82FC49883E00E94FE0A8C2F0E9459
S1131470FE0A0E94020BC49ACF910895CF93DF9382
S1131480D82FC62FC49882E00E94FE0A8D2F0E9496
S1131490FE0A8C2F0E94FE0AC49ADF91CF91089510
S11314A0C4980E94FE0AC49A089580930012089575
S11314B085B7806885BF80B7806280BF80B78F7E24
S11314C080BF80B7877F80BF85B7826085BF86B7BE
S11314D08F7B86BF0895E0E0F0E18EEA808381EAA5
S11314E080838AED808382E1808388EC808388EA2C
S11314F080838FE3808385ED808380E8808381E827
S1131500808380E5808389ED808381E2808380E22B
S1131510808382E080838DEB808380E380838DEA07
S11315208083108284EA808386EA80838FEA8083C2
S11315300895982F9F70E0E0F0E1908382958F707A
S1131540805F808308958055809300100895AF9242
S1131550BF92DF92EF921F93CF93DF930F2EF0EBA6
S1131560EF2EF02DA12C6894BB24B4F8D12CC0E04C
S1131570D2E1F501E0821D2D812F0E94990A188283
S11315801F5F1038C9F7E394F8EBEF12F2CFDF9145
S1131590CF911F91EF90DF90BF90AF9008951F936C
S11315A0CF93DF9380558093001010E0C0E0D2E128
S11315B0812F0E94990A18821F5F1038C9F7DF91A2
S11315C0CF911F91089585B7806885BF80B78062E9
S11315D080BF80B78F7E80BF80B7877F80BF85B78D
S11315E0826085BF86B78F7B86BF089587B3806B83
S11315F087BBBE988DB181658DB908958FB9779BEE
S1131600FECF089580E00E94FE0A8FB108955D9B8D
S1131610FECF8CB908955F9BFECF8CB1089590BD29
S113162089B988E18AB96BE07BE087E09BE00E949E
S1131630A40D909349028093480208950CD0BAC037
S1131640B2D040F0A9D030F021F45F3F19F09BC034
S11316505111E4C09EC0BFD098F39923C9F3552318
S1131660B1F3951B550BBB27AA2762177307840791
S113167038F09F5F5F4F220F331F441FAA1FA9F347
S113168033D00E2E3AF0E0E830D091505040E69539
S1131690001CCAF729D0FE2F27D0660F771F881F9A
S11316A0BB1F261737074807AB07B0E809F0BB0B89
S11316B0802DBF01FF2793585F4F2AF09E3F5105AD
S11316C068F061C0ABC05F3FECF3983EDCF38695F5
S11316D077956795B795F7959F5FC9F7880F911D23
S11316E09695879597F90895E1E0660F771F881F0F
S11316F0BB1F621773078407BA0720F0621B730BC2
S1131700840BBA0BEE1F88F7E0950895E89409C09E
S113171097FB3EF490958095709561957F4F8F4F20
S11317209F4F9923A9F0F92F96E9BB279395F69536
S1131730879577956795B795F111F8CFFAF4BB0FB4
S113174011F460FF1BC06F5F7F4F8F4F9F4F16C018
S1131750882311F096E911C0772321F09EE8872FA2
S1131760762F05C0662371F096E8862F70E060E05E
S11317702AF09A95660F771F881FDAF7880F9695D7
S1131780879597F9089597F99F6780E870E060E07E
S113179008959FEF80EC089500240A941616170606
S11317A018060906089500240A941216130614064E
S11317B005060895092E0394000C11F4882352F0B1
S11317C0BB0F40F4BF2B11F460FF04C06F5F7F4F69
S11317D08F4F9F4F089557FD9058440F551F59F050
S11317E05F3F71F04795880F97FB991F61F09F3F0A
S11317F079F087950895121613061406551FF2CF33
S11318004695F1DF08C0161617061806991FF1CF82
S113181086957105610508940895E894BB276627A9
S11318207727CB0197F9089503D008F48FEF089533
S1131830990F0008550FAA0BE0E8FEEF16161706DD
S1131840E807F907C0F012161306E407F50798F045
S1131850621B730B840B950B39F40A2661F0232B5E
S1131860242B252B21F408950A2609F4A140A695DA
S11318708FEF811D811D0895052E97FB1EF40094A2
S11318800E94530C57FD07D00E945B0C07FC03D049
S11318904EF40C94530C50954095309521953F4F40
S11318A04F4F5F4F089590958095709561957F4F48
S11318B08F4F9F4F0895A1E21A2EAA1BBB1BFD0157
S11318C00DC0AA1FBB1FEE1FFF1FA217B307E4071B
S11318D0F50720F0A21BB30BE40BF50B661F771F73
S11318E0881F991F1A9469F7609570958095909553
S11318F09B01AC01BD01CF010895CF93DF938230EA
S1131900910510F482E090E0E0914C02F0914D02D8
S113191020E030E0A0E0B0E0309739F1408151811F
S113192048175907B8F04817590771F48281938111
S1131930109729F013969C938E9312972CC0909332
S11319404D0280934C0227C02115310531F0421716
S1131950530718F0A901DB0101C0EF019A01BD0191
S1131960DF010280F381E02DD7CF21153105F9F095
S1131970281B390B2430310580F48A819B81611541
S1131980710521F0FB019383828304C090934D027F
S113199080934C02FE01329644C0FE01E20FF31F15
S11319A08193919322503109398328833AC020913D
S11319B04A0230914B02232B41F4209102013091D1
S11319C0030130934B0220934A022091000130918D
S11319D001012115310541F42DB73EB740910401B1
S11319E050910501241B350BE0914A02F0914B0202
S11319F0E217F307A0F42E1B3F0B2817390778F0E2
S1131A00AC014E5F5F4F2417350748F04E0F5F1F40
S1131A1050934B0240934A028193919302C0E0E0B9
S1131A20F0E0CF01DF91CF910895CF93DF9300973A
S1131A3009F487C0FC01329713821282C0914C02D0
S1131A40D0914D02209781F420813181280F391FD4
S1131A5080914A0290914B028217930779F5F09393
S1131A604B02E0934A026DC0DE0120E030E0AE1785
S1131A70BF0750F412964D915C9113979D01411547
S1131A80510509F1DA01F3CFB383A2834081518177
S1131A90840F951F8A179B0771F48D919C91119760
S1131AA0840F951F02969183808312968D919C9149
S1131AB01397938382832115310529F4F0934D0202
S1131AC0E0934C023EC0D9011396FC93EE93129717
S1131AD04D915D91A40FB51FEA17FB0779F480813E
S1131AE09181840F951F0296D90111969C938E9330
S1131AF08281938113969C938E931297E0E0F0E099
S1131B008A819B81009719F0FE01EC01F9CFCE0187
S1131B10029628813981820F931F20914A023091C5
S1131B204B022817390769F4309729F410924D02B3
S1131B3010924C0202C013821282D0934B02C093C3
S1131B404A02DF91CF9108950F931F93CF93DF93B0
S1131B50EC018B01009731F46115710519F480E0F3
S1131B6090E038C06EE070E081E090E00E94EF0DFC
S1131B70FC010097A1F380E883830115110571F03E
S1131B801387028781E8838380914E0290914F02EC
S1131B90892B21F4F0934F02E0934E022097C9F071
S1131BA0D187C08783818260838380915002909122
S1131BB05102892B71F4F0935102E0935002809109
S1131BC0520290915302892B21F4F0935302E09333
S1131BD05202CF01DF91CF911F910F9108950F937E
S1131BE01F93CF93DF93869F8001879F100D969F4D
S1131BF0100D1124C8010E947D0CEC01009729F0FE
S1131C00A80160E070E00E940B0ECE01DF91CF913D
S1131C101F910F910895DC0101C06D934150504014
S10B1C20E0F70895F894FFCFEA
S1131C280000540220002D2D484F5645444D454E82
S1131C38592D2D002043686F6F7365205465616DBD
S1131C4820002047616D656D6F6465732020200056
S1131C5820202020202D2D5445414D2D2D2020209D
S1131C682020204765726D616E20202020202020CE
S1131C782020202020416C6C6965642020202020CD
S1131C8820202020202020536F766965742020208E
S1131C9820202020202020202053776564656E2092
S1131CA828636F776172647329202D2D47414D4550
S1131CB84D4F4445532D2D204E6F726D616C20207D
S1131CC82020202020486172642D6D6F64652020D7
S1131CD820204461726B20736F756C7320205465E7
S1131CE8616D2063686F73656E3A204765726D6134
S1131CF86E205465616D2063686F73656E3A204188
S1131D086C6C696564205465616D2063686F7365E4
S1131D186E3A20536F76696574205465616D20634B
S1131D28686F73656E3A2053776564656E2020206A
S1131D38202020472041204D204520204F20562098
S1131D48452052202D2D20472041204D2049204E4A
S1131D582047202D2D532043204F20522045303139
S10B1D683233343536373839C3
S9030000FC
