S014000050696E67506F6E6747616D652E7372656374
S11300000C9431010C944E010C944E010C944E014D
S11300100C944E010C944E010C944E010C944E0120
S11300200C944E010C944E010C944E010C944E0110
S11300300C944E010C944E010C944E010C944E0100
S11300400C944E010C944E010C944E010C944E01F0
S11300500C944E010C944E010C944E010C944E01E0
S11300600C944E010C944E010C944E010C944E01D0
S1130070000E3B2163C663213B0E00000E3F3F7F11
S1130080FE7F3F3F0E00000000000000005F000004
S11300900007000700147F147F14242A7F2A1223E8
S11300A01308646236495522500005030000001C01
S11300B02241000041221C00082A1C2A0808083E8C
S11300C008080050300000080808080800606000B4
S11300D00020100804023E5149453E00427F400082
S11300E042615149462141454B311814127F102772
S11300F0454545393C4A49493001710905033649AA
S1130100494936064949291E00363600000056364C
S11301100000000814224114141414144122140879
S1130120000201510906324979413E7E1111117EC6
S11301307F494949363E414141227F4141221C7F4A
S1130140494949417F090901013E414151327F0832
S113015008087F00417F41002040413F017F08148F
S113016022417F404040407F0204027F7F04081008
S11301707F3E4141413E7F090909063E4151215ECE
S11301807F09192946464949493101017F01013F47
S11301904040403F1F2040201F7F2018207F6314D1
S11301A00814630304780403615149454300007F44
S11301B04141020408102041417F00000402010271
S11301C0044040404040000102040020545454784C
S11301D07F484444383844444420384444487F38B1
S11301E054545418087E090102081454543C7F08DE
S11301F004047800447D40002040443D00007F100A
S1130200284400417F40007C041804787C080404DE
S11302107838444444387C14141408081414187CA2
S11302207C080404084854545420043F4440203CAF
S11302304040207C1C2040201C3C4030403C442852
S11302401028440C5050503C4464544C440008362C
S1130250410000007F000000413608000201030253
S1130260010011241FBECFEFD4E0DEBFCDBF12E0EA
S1130270A0E0B1E0E6E0F6E102C005900D92AC3AF0
S1130280B107D9F722E0ACEAB2E001C01D92A83B65
S1130290B207E1F70E9488080C94010B0C9400004B
S11302A08093001486E692E00197F1F700008091B4
S11302B0001408950E94960882E58A95F1F760E893
S11302C08FE00E94B30863E08BE20E94B30860E011
S11302D08CE20E94B30860E08DE20E94B30860E003
S11302E08CE00E94B30860E08DE00E94B30860E6F1
S11302F080E60E94B30860E680E70E94B30860E0ED
S11303008FE00E94B3080895CF92DF92EF92FF929C
S11303100F931F93CF93DF93CDB7DEB72B970FB611
S1130320F894DEBF0FBECDBFE982FA820B831C8333
S11303302D833E834F83588769877A878B876E2DF9
S113034081E30E94B3086E2D81E30E94B308602FFD
S113035085E30E94B308C02ED12C1C141D0494F410
S11303607E0184E0E80EF11C00E010E0F7016191E9
S11303707F0186E3800F0E94B3080F5F1F4F0C15A7
S11303801D05A4F381E80E94C5082B960FB6F894C6
S1130390DEBF0FBECDBFDF91CF911F910F91FF90B4
S11303A0EF90DF90CF900895EF92FF920F931F93F9
S11303B0CF93DF937C0181E60E94A50890E0F701CA
S11303C09183808385E60E94A508F70182838823B0
S11303D099F087010D5F1F4FC0E0D0E08C2F8A5940
S11303E00E94A508F80181938F012196F7012281CB
S11303F030E0C217D30794F360E08CE20E94B308A4
S1130400DF91CF911F910F91FF90EF900895CF93BB
S1130410DF93CDB7DEB7CF5AD1400FB6F894DEBF25
S11304200FBECDBF80E5E2E2F1E0DE01119601905E
S11304300D928A95E1F784E6E2E7F1E0DE01AF5A36
S1130440BF4F01900D928A95E1F780E5E6EDF1E06A
S1130450DE01AB54BF4F01900D928A95E1F788E518
S1130460E6E2F2E0DE01AB5FBE4F01900D928A95A9
S1130470E1F789E1EEE7F2E0DE01A35ABE4F019015
S11304800D928A95E1F784E1E7E9F2E0DE01AA58EA
S1130490BE4F01900D928A95E1F780E7E82EC6578A
S11304A0DE4F8883CA58D140C557DE4F1882CB58D7
S11304B0D14087E0C457DE4F8883CC58D1408AE0CE
S11304C0C157DE4F8883CF58D140F12C07E0C35782
S11304D0DE4F1881CD58D140C257DE4F2881CE5807
S11304E0D1403AE0C057DE4F4881C059D140CF5681
S11304F0DE4F5881C159D140CE56DE4F6881C25972
S1130500D140CD56DE4F7881C359D140CC56DE4F11
S11305108881C459D1400E948401C855DE4F188295
S1130520C85AD140C255DE4F19821882CE5AD140E2
S113053081E090E0CB55DE4F1882C55AD140CA55B0
S1130540DE4F1882C65AD14020E0C455DE4F2883BE
S1130550CC5AD14030E0C355DE4F3883CD5AD14018
S1130560CD55DE4F2883C35AD140CC55DE4F388356
S1130570C45AD14081309105A9F544244394512CA7
S113058085E090E00E945001182F84E090E00E94E2
S11305905001282F30E02D37310538F443E044165C
S11305A051041CF48FEF481A580A2338310538F0E7
S11305B092E0491651041CF0E1E04E1A5108183833
S11305C018F1F1E04F16510489F42FEF3FE747E0AB
S11305D0215030404040E1F700C0000044244394DF
S11305E0512CCDC082309105C9F316C182E0481662
S11305F0510451F49FEFEFE7F7E09150E040F040F1
S1130600E1F700C00000CBC10E940909CB55DE4FC1
S11306108881C55AD140CA55DE4F9881C65AD14007
S11306200E94FB08CB55DE4F8881C55AD140CA557C
S1130630DE4F9881C65AD1400E9405094CEE9201C2
S113064042031001439F300C1124CB55DE4F6880C8
S1130650C55AD140CA55DE4F7880C65AD140862C3F
S1130660972CE4E1E49DC001E59D900D112421E067
S113067030E02C0F3D1F280F391FC056DE4F398341
S11306802883C05AD14060C048145904D1F4C7012A
S1130690800F911F0E94FB08F501808190E08097F4
S11306A09C01220F331F220F331F820F931FFC0163
S11306B0E00FF11FEA57FF4F849180950E94CA080A
S11306C017C0C701800F911F0E94FB08F6018081AB
S11306D090E08097FC01EE0FFF1FEE0FFF1FE80F65
S11306E0F91FE00FF11FEA57FF4F84910E94CA08D7
S11306F00F5F1F4F0530110539F6F5E0EF0EF11CC1
S11307002FEFA21AB20A31E4E316F10481F0650175
S1130710C20CD31CC60CD71CCD55DE4F0881C35A5E
S1130720D140CC55DE4F1881C45AD140ADCF4FEFE4
S1130730841A940AC4010E94050984E1680E711C9C
S113074094E08916910489F0C056DE4FA880B980E0
S1130750C05AD140C455DE4FE880CC5AD140C3556D
S1130760DE4FF880CD5AD140D2CFEFEFFFE727E03C
S1130770E150F0402040E1F700C0000001CF85E0E7
S113078090E00E945001082F10E084E090E00E9465
S1130790500190E08D37910538F435E0431651044B
S11307A01CF44FEF441A540A8838910538F082E05B
S11307B0481651041CF091E0491A51080C331105F4
S11307C008F481C40739110560F1E1E04E165104C3
S11307D049F0F2E04F165104A1F023E0421651040F
S11307E059F474C4C255DE4F1882CE5AD140C15553
S11307F0DE4F1882CF5AD14034E04316510449F4F5
S113080070C481E090E0C255DE4F99838883CE5A4C
S1130810D14084E090E002C18330910509F4BCC06A
S1130820FDC00E940909CB55DE4F8881C55AD140CD
S1130830CA55DE4F9881C65AD1400E94FB08CB5559
S1130840DE4F8881C55AD140CA55DE4F9881C65AB9
S1130850D1400E9405094CEE920142031001439FCE
S1130860300C1124CB55DE4F6880C55AD140CA558F
S1130870DE4F7880C65AD140862C972CE4E1E49D63
S1130880C001E59D900D112421E530E02C0F3D1FA2
S1130890280F391FC056DE4F39832883C05AD140F0
S11308A060C048145904D1F4C8018E0D9F1D0E94E4
S11308B0FB08F501808190E080979C01220F331F93
S11308C0220F331F820F931FFC01E00FF11FEA5721
S11308D0FF4F849180950E94CA0817C0C701800FFA
S11308E0911F0E94FB08F601808190E08097FC0133
S11308F0EE0FFF1FEE0FFF1FE80FF91FE00FF11FB0
S1130900EA57FF4F84910E94CA080F5F1F4F0530BA
S1130910110539F6F5E0EF0EF11C2FEFA21AB20A19
S11309203AE5E316F10481F06501C20CD31CC60C50
S1130930D71CCD55DE4F0881C35AD140CC55DE4F6C
S11309401881C45AD140ADCF4FEF841A940AC40120
S11309500E94050984E1680E711C95E089169104D2
S113096089F0C056DE4FA880B980C05AD140C45522
S1130970DE4FE880CC5AD140C355DE4FF880CD5AC3
S1130980D140D2CFEFEFFFE727E0E150F040204025
S1130990E1F700C00000F3CE44244394512C85E0D9
S11309A090E00E945001082F10E084E090E00E9443
S11309B0500190E08D37910538F433E0431651042B
S11309C01CF44FEF441A540A8838910538F082E039
S11309D0481651041CF091E0491A51080C331105D2
S11309E008F48AC308381105F0F0E1E04E1651040A
S11309F069F0F2E04F16510409F432C123E04216C3
S1130A00510409F47CC383E090E008C03AE0C8557F
S1130A10DE4F3883C85AD14086E090E08430910597
S1130A2009F4BCC025C10E940909CB55DE4F888159
S1130A30C55AD140CA55DE4F9881C65AD1400E944A
S1130A40FB08CB55DE4F8881C55AD140CA55DE4FCD
S1130A509881C65AD1400E9405094CEE9201420386
S1130A601001439F300C1124CB55DE4F6880C55ACA
S1130A70D140CA55DE4F7880C65AD140862C972C77
S1130A80E4E1E49DC001E59D900D112425EB30E0E7
S1130A902C0F3D1F280F391FC056DE4F3983288382
S1130AA0C05AD14060C048145904D1F4C701800F22
S1130AB0911F0E94FB08F501808190E080979C01C2
S1130AC0220F331F220F331F820F931FFC01E00FED
S1130AD0F11FEA57FF4F849180950E94CA0817C0FE
S1130AE0C701800F911F0E94FB08F601808190E0EE
S1130AF08097FC01EE0FFF1FEE0FFF1FE80FF91F99
S1130B00E00FF11FEA57FF4F84910E94CA080F5F5C
S1130B101F4F0530110539F6F5E0EF0EF11C2FEFEC
S1130B20A21AB20A31E4E316F10481F06501C20CA1
S1130B30D31CC60CD71CCD55DE4F0881C35AD140F7
S1130B40CC55DE4F1881C45AD140ADCF4FEF841A33
S1130B50940AC4010E94050984E1680E711C94E0A2
S1130B608916910489F0C056DE4FA880B980C05A16
S1130B70D140C455DE4FE880CC5AD140C355DE4F36
S1130B80F880CD5AD140D2CFEFEFFFE727E0E15014
S1130B90F0402040E1F700C0000001CF0E940909A5
S1130BA080E090E00E94FB0880E090E00E9405094C
S1130BB086E1C255DE4FE881F981CE5AD1408E9F3D
S1130BC060018F9FD00C112425E031E02C0F3D1FD4
S1130BD0C20ED31EE12CF12CCB55DE4FB880C55A82
S1130BE0D140CA55DE4FA880C65AD14026C0C7019D
S1130BF0800F911F0E94FB08F601808190E080978E
S1130C00FC01EE0FFF1FEE0FFF1FE80FF91FE00FAF
S1130C10F11FEA57FF4F84910E94CA080F5F1F4FCC
S1130C200530110521F7F5E0EF0EF11C2FEFC21A84
S1130C30D20A34E6E316F10419F00B2D1A2DD7CF9E
S1130C4081E090E00E9405094FEF8FE795E2415063
S1130C5080409040E1F700C0000081E090E08ACC41
S1130C60E3E0C855DE4FE883C85AD14086E090E0FF
S1130C708530910509F051C00E94090980E090E097
S1130C800E94FB0883E090E00E9405096E01F3EAEC
S1130C90CF1AFEEFDF0AE12CF12CCB55DE4FB880E2
S1130CA0C55AD140CA55DE4FA880C65AD14026C085
S1130CB0C701800F911F0E94FB08F601808190E01C
S1130CC08097FC01EE0FFF1FEE0FFF1FE80FF91FC7
S1130CD0E00FF11FEA57FF4F84910E94CA080F5F8B
S1130CE01F4F0530110521F7F5E0EF0EF11C2FEF32
S1130CF0C21AD20A3EE6E316F10419F00B2D1A2D9E
S1130D00D7CF4FEF8FEF9AE4415080409040E1F706
S1130D1000C0000081E090E02DCC8630910509F4FC
S1130D20ABC128CCC755DE4FB882C95AD1408BE03D
S1130D3090E00E946C098C010E94D401F801F285B4
S1130D40C955DE4FF883C75AD140C8010E94040A2E
S1130D500E940909CB55DE4F8881C55AD140CA5536
S1130D60DE4F9881C65AD1400E94FB08CB55DE4F16
S1130D708881C55AD140CA55DE4F9881C65AD140A0
S1130D800E9405099E012A583E4F6901CB55DE4F4A
S1130D90E880C55AD140CA55DE4FF880C65AD140C2
S1130DA0C455DE4F3880CC5AD140C355DE4F28801D
S1130DB0CD5AD14026C0C701800F911F0E94FB0865
S1130DC0F601808190E08097FC01EE0FFF1FEE0F8B
S1130DD0FF1FE80FF91FE00FF11FEA57FF4F84913F
S1130DE00E94CA080F5F1F4F0530110521F7F5E077
S1130DF0EF0EF11C2FEFC21AD20A35E5E316F10407
S1130E0019F0032D122DD7CF84E090E00E9405093C
S1130E10C655DE4F88819981CA5AD14018161906E1
S1130E200CF04DC0CB55DE4F8880C55AD140CA5511
S1130E30DE4F9880C65AD140E82CF92CC955DE4FB4
S1130E409881C75AD140A92EB12CC655DE4F2880AF
S1130E503980CA5AD14025C0EA14FB0454F0C601B3
S1130E60800F911F0E94FB08F80184910E94CA0818
S1130E700AC0C601800F911F0E94FB08F8013B962F
S1130E8084910E94CA080F5F1F4F0615170521F7AA
S1130E90FFEFEF1AFF0A2BE0820E911CE214F30419
S1130EA074F4C056DE4F0881C05AD140CE55DE4F8F
S1130EB01881C25AD1406401C418D508CDCF8CEC36
S1130EC094E00197F1F700C0000087B3887F87BBE7
S1130ED085E090E00E945001182F84E090E00E9489
S1130EE05001C82E87E090E00E945001D82E86E081
S1130EF090E00E94500146B356B3B6B2B2FABB2496
S1130F00B0F80F2EF0E7EF2EF02DCB56DE4FE8822F
S1130F10C559D140CA56DE4F1882C659D14097E010
S1130F20C956DE4F9883C759D140C856DE4F18833F
S1130F30C859D140C756DE4FC882C959D140C75598
S1130F40DE4F3881C95AD140E1E03E27C656DE4F14
S1130F503883CA59D1404170C556DE4F4883CB59B6
S1130F60D14056955170C456DE4F5883CC59D14068
S1130F70C356DE4FD882CD59D140C855DE4FF881D3
S1130F80C85AD140C256DE4FF883CE59D140F12C15
S1130F9007E02C2D6D2D7F2FC156DE4F8881CF5950
S1130FA0D1400E948401C955DE4F2881C75AD140DF
S1130FB02111B8CE0FC0C755DE4FB880C95AD140F1
S1130FC0C855DE4F3881C85AD140C955DE4F3883E1
S1130FD0C75AD14080E7E82ECB56DE4F8883C559E7
S1130FE0D140CA56DE4F1882C659D14087E0C9564F
S1130FF0DE4F8883C759D1408AE0C656DE4F8883C6
S1131000CA59D140F12C07E0C856DE4F1881C8599F
S1131010D140C756DE4F2881C959D1403AE0C55660
S1131020DE4F4881CB59D140C456DE4F5881CC594C
S1131030D140C356DE4F6881CD59D140C256DE4FF0
S11310407881CE59D140C156DE4F8881CF59D140E5
S11310500E948401C755DE4FB882C95AD140C95590
S1131060DE4F4881C75AD140C855DE4F4883C85A1D
S1131070D14085E090E07ECAC855DE4F8881C85AC9
S1131080D140882309F497CFE82FF0E0C655DE4F0E
S1131090F983E883CA5AD1400F2EF0E74F2EF0E0CF
S11310A05F2EF02D0F2EFBE76F2EF0E07F2EF02D3C
S11310B0C056DE4F4882C05AD140CE55DE4F5882CA
S11310C0C25AD14034CE81E090E0A8CC22E030E096
S11310D0C255DE4F39832883CE5AD14084E090E054
S11310E09DCC83E090E0C255DE4F99838883CE5A2D
S11310F0D14084E090E092CC81E090E0B9CD91E0E1
S1131100C855DE4F9883C85AD14086E090E0B0CDF0
S11311108FE190E00E945D090E9431090E949E08BF
S11311200E945A010E94CD080E940702C49880ECD4
S11311300E944C09C49A80E090E008950E944409FA
S11311400E94960880E090E00895CF93C82FC49839
S113115083E00E944C098C2F0E944C090E94500984
S1131160C49ACF910895CF93DF93D82FC62FC498F4
S113117082E00E944C098D2F0E944C098C2F0E9402
S11311804C09C49ADF91CF910895C4980E944C09E8
S1131190C49A0895809300120895E0E0F0E18EEA85
S11311A0808381EA80838AED808382E1808388EC76
S11311B0808388EA80838FE3808385ED808380E861
S11311C0808381E8808380E5808389ED808381E268
S11311D0808380E2808382E080838DEB808380E360
S11311E080838DEA8083108284EA808386EA808308
S11311F08FEA80830895982F9F70E0E0F0E1908358
S113120082958F70805F808308958055809300104D
S11312100895AF92BF92DF92EF921F93CF93DF9323
S11312200F2EF0EBEF2EF02DA12C6894BB24B4F814
S1131230D12CC0E0D2E1F501E0821D2D812F0E9466
S1131240FB0818821F5F1038C9F7E394F8EBEF121C
S1131250F2CFDF91CF911F91EF90DF90BF90AF90CD
S1131260089585B7806885BF80B7806280BF80B7E6
S11312708F7E80BF80B7877F80BF85B7826085BF40
S113128086B78F7B86BF089587B3806B87BBBE9874
S11312908DB181658DB908958FB9779BFECF08957F
S11312A080E00E944C098FB108955D9BFECF8CB9FC
S11312B008955F9BFECF8CB1089590BD89B988E1F4
S11312C08AB969E579E085E599E00E94930A9093EB
S11312D0AD028093AC020895CF93DF9382309105E1
S11312E010F482E090E0E091B002F091B10220E0CD
S11312F030E0A0E0B0E0309739F1408151814817E7
S11313005907B8F04817590771F4828193811097EF
S113131029F013969C938E9312972CC09093B1024C
S11313208093B00227C02115310531F042175307CD
S113133018F0A901DB0101C0EF019A01BD01DF0131
S11313400280F381E02DD7CF21153105F9F0281B58
S1131350390B2430310580F48A819B816115710534
S113136021F0FB019383828304C09093B1028093A4
S1131370B002FE01329644C0FE01E20FF31F8193D6
S1131380919322503109398328833AC02091AE02C7
S11313903091AF02232B41F42091020130910301DB
S11313A03093AF022093AE022091000130910101ED
S11313B02115310541F42DB73EB7409104015091F8
S11313C00501241B350BE091AE02F091AF02E21748
S11313D0F307A0F42E1B3F0B2817390778F0AC0154
S11313E04E5F5F4F2417350748F04E0F5F1F509331
S11313F0AF024093AE028193919302C0E0E0F0E02B
S1131400CF01DF91CF910895CF93DF93009709F433
S113141087C0FC01329713821282C091B002D0912E
S1131420B102209781F420813181280F391F8091E6
S1131430AE029091AF028217930779F5F093AF0251
S1131440E093AE026DC0DE0120E030E0AE17BF07CE
S113145050F412964D915C9113979D0141155105DD
S113146009F1DA01F3CFB383A28340815181840F60
S1131470951F8A179B0771F48D919C911197840F86
S1131480951F02969183808312968D919C91139758
S1131490938382832115310529F4F093B102E093FB
S11314A0B0023EC0D9011396FC93EE9312974D916E
S11314B05D91A40FB51FEA17FB0779F48081918130
S11314C0840F951F0296D90111969C938E93828165
S11314D0938113969C938E931297E0E0F0E08A81B7
S11314E09B81009719F0FE01EC01F9CFCE01029621
S11314F028813981820F931F2091AE023091AF026F
S11315002817390769F4309729F41092B102109220
S1131510B00202C013821282D093AF02C093AE0213
S1131520DF91CF9108950F931F93CF93DF93EC0135
S11315308B01009731F46115710519F480E090E096
S113154038C06EE070E081E090E00E94DE0AFC01A9
S11315500097A1F380E883830115110571F01387C7
S1131560028781E883838091B2029091B302892B30
S113157021F4F093B302E093B2022097C9F0D1872B
S1131580C0878381826083838091B4029091B50285
S1131590892B71F4F093B502E093B4028091B60202
S11315A09091B702892B21F4F093B702E093B6022D
S11315B0CF01DF91CF911F910F9108950F931F9346
S11315C0CF93DF93869F8001879F100D969F100D08
S11315D01124C8010E946C09EC01009729F0A801AC
S11315E060E070E00E94FA0ACE01DF91CF911F9172
S11315F00F910895DC0101C06D9341505040E0F714
S10916000895F894FFCFE9
S11316060000B80220004E61612065722064657492
S113161620736E617274206A756C206961617272DE
S113162673002D2D484F5645444D454E592D2D00DA
S11316360000000000002043686F6F736520546546
S1131646616D20000000000000002047616D656D9B
S11316566F6465732020200000000000000020480D
S11316666967682053636F726520200000000000DC
S1131676000020202020202D2D5445414D2D2D20C5
S1131686202020200000204765726D616E202020F6
S11316962020202020202020000020416C6C696539
S11316A664202020202020202020202000002053F9
S11316B66F76696574202020202020202020202099
S11316C600002053776564656E2028636F77617226
S11316D66473292000002D2D47414D454D4F444547
S11316E6532D2D00000000000000204E6F726D6126
S11316F66C2020202020200000000000000020484C
S11317066172642D6D6F6465202020000000000066
S11317160000204461726B20736F756C7320200087
S11317260000000000005465616D2063686F7365F6
S11317366E3A204765726D616E2000005465616DD6
S11317462063686F73656E3A20416C6C696564202A
S113175600005465616D2063686F73656E3A2053AB
S11317666F766965742000005465616D2063686F47
S113177673656E3A2053776564656E2000002020F9
S1131786202020472041204D204520204F20562050
S1131796452052200000002D2D20472041204D20B9
S10F17A649204E2047202D2D000000009B
S9030000FC
